:020000040000FA
:10000000F8162020D5000000D9000000DB00000019
:1000100000000000000000000000000000000000E0
:10002000000000000000000000000000DD000000F3
:100030000000000000000000DF000000D5150000F7
:10004000E3000000E3000000E3000000E300000024
:10005000E3000000E3000000E3000000E300000014
:1000600000000000E3000000E300000000000000CA
:1000700000000000E3000000E3000000E5150000C0
:10008000E3000000E3000000E3000000E3000000E4
:10009000E3000000E300000000000000000000009A
:1000A000E3000000E300000000000000000000008A
:1000B000E300000000000000E3000000E300000097
:1000C0000348854600F0ACFB00480047ED200000E7
:1000D000F816202003480047FEE7FEE7FEE7FEE7AC
:1000E000FEE7FEE7C100000030B50B4601460020E8
:1000F0002022012409E00D46D5409D4205D31D462E
:100100009540491B2546954040191546521E002D25
:10011000F1DC30BD03460B439B0703D009E008C95F
:10012000121F08C0042AFAD203E00B780370401CA7
:10013000491C521EF9D27047D2B201E00270401C35
:10014000491EFBD270470022F6E710B513460A4657
:1001500004461946FFF7F0FF204610BD10B50022F7
:1001600000E0521C835C8C5CA34201D1002BF8D1CF
:10017000D8B2E1B2401A10BD30B5054600200346A2
:1001800000E05B1C934205D2EC5CC85C201A01D1F4
:10019000002CF6D130BD0000F7B5009C0F460026BC
:1001A0002578641C002D05D000F096F90068405DAC
:1001B000C007F5D12B2D02D02D2D18D0641E394645
:1001C0002046029A00F095F9002F04D03968A14228
:1001D00001D1009939607105022400290BDA4042EF
:1001E000002803DD03F068FC0460A007FEBD0120C9
:1001F00080020643E3E70028F8DA03F05DFC0460C0
:100200000048FEBDFFFFFF7FF8B502464A40D40F0D
:1002100042004B0052085B089A4202D2024608464E
:1002200011464A0023D0C30D4A00DDB2120EAD1AAA
:10023000202D35DA49020126490AF6058A19002CD3
:1002400000D0524220214F1B1146B9402A411018BC
:10025000C20D9A4221D0002C17D0012D08DCDA05FE
:10026000801AD20F8019D207DBB200F0AAF9F8BDCC
:10027000DA05801A012340001B06C01880185A4274
:100280008018CA0F1043490007E04908C20711430C
:10029000DA05801A80194008801800F08AF9F8BD44
:1002A00061000122511A001BF7E70122D2075140D9
:1002B000AAE70122D2075040A6E7024670B54A409D
:1002C000D30FDB0740002DD04A002AD0010E140EB8
:1002D000000212020919400A520A8418E501044674
:1002E0005443000A120A2E045043A4194219200C48
:1002F000C543AA18120C0125AD03521C5219120451
:100300007F39240400D0521C104301D44000491E00
:10031000C2B20C06C0092018401C4008802A02D036
:1003200003E0002070BD40084000002900DA0020F2
:10033000184370BD70B502464A40D50F40004A00D0
:10034000ED0740085208002814D0002A12D0C40D2E
:10035000D30D41020120C0055202490A520AE41A93
:10036000091812187D34914201D3641C00E0490041
:10037000002C01DA002070BD0023914201D3891ABC
:100380000343400849000028F7D100290AD09142D0
:1003900002D10121C90705E0914201D2012101E00A
:1003A0000121C943E005C018401900F002F970BDF1
:1003B0000122D207002800DB101A002900DB511AA5
:1003C000814201D801207047002070470122D207E6
:1003D000002800DB101A002900DB511A814201D2EB
:1003E00001207047002070470122D207002800DB5F
:1003F000101A002900DB511A814201D301207047F5
:10040000002070470122D207002800DB101A0029C3
:1004100000DB511A814201D901207047002070474A
:10042000C217C10F504010B54018CA0796230021CB
:1004300000F0C7F810BD10B500229623114600F059
:10044000C0F810BDC20F410040020123400ADB0585
:10045000D207090EC0187F2901DA002070479629BB
:1004600003DC9623591AC84001E096398840002AD7
:10047000F4D040427047F0B51FB40646002082B069
:1004800005464024019100901BE0019922460F4649
:10049000304600F0E7F9049A059B801A994110D381
:1004A00010461946224600F0CDF9361A8F410197C1
:1004B000224601200021009F00F0C4F938184D4168
:1004C00000902046641E0028DFDC019B009829462E
:1004D000324607B0F0BD00000048704758410000A8
:1004E00010B50446FFF7F8FF0068005DC007C00FB5
:1004F00010BDF7B582B0029C00272078641C154619
:100500000197302802D0002D15D015E02078012762
:10051000641C782804D0582802D0002D09D00BE0A4
:10052000002D01D0102D07D1002710252078641C44
:1005300002E0082500E00A250026009610E0009958
:10054000012769430818020C294680B271430090C4
:100550008E183804864201D3012001902078641C53
:10056000294600F090F90028E9DA0398002805D020
:10057000002F01D0641E00E0029C04600198002856
:1005800006D003F099FA02210160C81E05B0F0BD43
:10059000009930040843F9E77CB500230546009331
:1005A0006846019300F099F96946284603F088FAF5
:1005B0007CBD002904DA401C490001D140084000FC
:1005C000704770B40024050C05D11024000402D13A
:1005D000002921D01124050E01D100020834050F95
:1005E00001D10001241D850F01D18000A41C002829
:1005F00001DB4000641C002908D020252E1B0D467D
:10060000F540A14000D001212943084301061B1BEE
:10061000000ADB1D02D5002070BC7047DB051818EE
:1006200080180029F8DA401C4900F5D170BC400858
:1006300040007047F0B51FB488B00B9909980024AA
:1006400048400999C00F490049080991C0070B9912
:100650000090490049080B9109990898A64608435B
:100660001CD00B990A98084318D00998012440001F
:10067000420D4800410D099824050003000B20435A
:1006800009900B980003000B20430B9050181C4955
:100690004018002201901446104605E00020014653
:1006A0000DB0F0BD032801DA034600E003239C46A9
:1006B000C11A0AAE0AE05F0008ADED5B4F00F75BC0
:1006C0007D430027AA187C41491C5B1E6145F2DD71
:1006D000410004AB5A522104120C0A43240C401C62
:1006E0000828DFDB01980290009970460191009084
:1006F000059B049A0799069800F033F9D0E70000AB
:100700000DFCFFFFF0B50C465C4085B0E40FE4073C
:1007100003944C0000266408590094464908024698
:100720000296224321D062460A431ED06200570D32
:100730004A000E032303550D012402462C492405CB
:10074000781B1B0B360B4018234326436146009051
:100750001C46501AB44103D30098401C009002E09C
:10076000921800985B41002803DA0020014605B08A
:10077000F0BD0020012109050746864611E06446C8
:100780001D46141BB54106D36546521BB341744642
:1007900007430C43A646CD07400849082843921852
:1007A0005B4105460D43EAD11046184313D060461D
:1007B000194650407140084306D06046101AB341B4
:1007C00006D20122002306E000220123DB0702E01B
:1007D0000122D2435310009874460105381C614130
:1007E000029C039D0019694100F0AEF8BFE70000CC
:1007F000FD03000010B5002904DB0124E40740429A
:100800008C412146002B04DB1C460123DB075242AE
:10081000A341994200D1904210BD000000000000A9
:10082000064C0125064E05E0E36807CC2B430C3C43
:1008300098471034B442F7D3FFF746FCD845000080
:10084000F845000010B5202A04DB0146203A91400B
:10085000002010BD914020239C1A0346E340194319
:10086000904010BD10B5202A04DB0846203AD04045
:10087000002110BD0B46D340D0402024A21A914045
:100880000843194610BD3A2800D2303820230246CA
:100890009A43412A01D310463738884201D30020B9
:1008A000C04370470FB400B589B00CA900910B99F3
:1008B0000023CB60204B214A069307920422019229
:1008C0001F4A02921F4A089202466B46002000F01F
:1008D0002AF909B008BC04B0184770B586B00646BE
:1008E0000020C0430190002015460C460091029163
:1008F00004903246694604A8FFF7D4FF03460498E3
:100900002118002D05D0002801D00A4600E022461B
:100910002A6000280DD0002B02DD0098884208D004
:10092000081B0190009432466946029404A8FFF720
:10093000B9FF06B070BD00007D0D00009D0D0000E8
:10094000FFFFFF7FE104000010B5002B08DA002450
:10095000401C614192185B411A4301D1400840009C
:1009600010BDF0B51FB482B005460C0003D0084698
:1009700003F08AF802E003F087F820300246009086
:1009800021462846FFF75EFF049B059A04460F4662
:1009900018431143084314D0184610431BD0009845
:1009A00040210A1A18460599FFF75CFF05460E46D6
:1009B000009A05990498FFF745FF084305D00120E8
:1009C00004E02046394607B0F0BD0020C1170543BA
:1009D0000E432C43374300990E986305401A79055E
:1009E000E40A00220C43FD0A0A3002D50020014629
:1009F000E9E70105101969410C9C0D9D0019694139
:100A0000FFF7A2FFDFE70000FFB5087889B01546C1
:100A1000FF2805D0491C2D2804D00022002407E01F
:100A200000240BE00122F9E70A235C430419491C66
:100A30000878FF28F8D1002A00D0644200200490F2
:100A40002A7801462D2A01D02B2A0FD16D1C2D2A80
:100A500002D00022049209E00122FBE700260A22CC
:100A600033466D1C00F0DEF9381871412F78FF2FE6
:100A7000F4D10C9AA218069202460A4304D0FF232E
:100A8000069A9133DA4205DA002109980A4606C02F
:100A90000DB0F0BD0024B74AB54D2646079200F0D0
:100AA00015FA029006980391002801DA474200E007
:100AB000074639050020AF4A001C514101910090C2
:100AC00012E0F80707D022462B4630460799FFF779
:100AD000B1FD0646079122462B4610461946FFF700
:100AE000A9FD04460D467F10002FEAD10698019B10
:100AF0000028009A0399029806DAFFF703FE3246AF
:100B0000079BFFF7FFFD05E0FFF794FD3246079BCB
:100B1000FFF790FD049A002A02D00122D20751402B
:100B2000099A03C2B4E7FFB591B0002009900025EF
:100B3000ED432E209E685C681F460190B9696D1CCC
:100B4000129888470090396A88470028F6D10098A3
:100B5000401C0AD00D20C0018443002E12DD0098F5
:100B60002B2809D02D280DD103E00020C04315B05B
:100B7000F0BD012080020443B9696D1C12988847BA
:100B8000761E009003A9600501D52D2000E02B20E2
:100B90006A461073491C0CA80F9102900AE0B969CB
:100BA0006D1C12988847009001204002044313985E
:100BB000761E0560002E02DD00983028EFD00199E6
:100BC0000098884246D18020044308E00998401EDE
:100BD00009900120400204431399681C0860B96918
:100BE0006D1C761E1298884700903028EED031E0B8
:100BF0000199884205D1200603D480200443761E43
:100C00001EE0009802F0E2FF002826D001204002FA
:100C1000044307A90F980331761E88420BD200982F
:100C20000F99303808700F98401C0F90200607D598
:100C30000998401E03E0200602D40998401C099040
:100C4000A00502D51399681C0860B9696D1C12983B
:100C500088470090002ECBDC59E0002E57DD00982D
:100C6000652801D0452852D1A00550D503200002A7
:100C70008443B9696D1C761E129888470090002E37
:100C80000CDD2B2804D02D2808D1FF20013004438F
:100C9000B9696D1C12988847761E0090E00501D551
:100CA0002D2100E02B21029801700298401C029037
:100CB000019025E00120400204430EA90298013171
:100CC000761E88420ED20098029930380006000E37
:100CD000087003D10299019881420AD90298401CF8
:100CE000029006E0E00501D5234801E02248404299
:100CF0000990B9696D1C1298884700901398056097
:100D0000002E04DD009802F061FF0028D2D1F969BD
:100D1000129888470F99FF200870029903AA08705B
:100D200000200A900B900CA90AA8099BFFF76CFE03
:100D3000A00502D40120C04319E72420044209D0B1
:100D4000E00713D138680B9A0A99031D3B600068CD
:100D500006C00BE00B990A9800F046F80146E00740
:100D600004D13868021D3A60006801602846FEE63A
:100D7000000014400000F03FF1D8FFFF4268002A55
:100D800008D001680B78491C002B03D0521E06C006
:100D9000184670470121C160881E70474268002ACA
:100DA0000BD0C3680168002B07D183688B4204D045
:100DB000491E521C06C0002070470020C0437047E7
:100DC00010B5002904DB0124E40740428C41214690
:100DD000002B04DB1C460123DB075242A3418B425C
:100DE00000D1824210BD0000CB0FDB07490010B5D7
:100DF000490802460A4307D00A0D07240903E40103
:100E0000090B121B002A01DC002010BDC900440F91
:100E10000C43C100E018D2058018FFF7CAFB10BDD3
:100E200000207047F0B51FB486B0002000900190FC
:100E300002900698069980B204900798090C020463
:100E40000014114307900027089D099806913E461B
:100E50003C4603900398A9B20204000C0390049846
:100E60002D0C1543484300212246FFF7EBFCC71920
:100E7000714110340E46402CECDB3846029AFFF7E5
:100E8000E1FC009A019B8018009059410298019161
:100E9000103002904028CCDB00980BB0F0BD70B54C
:100EA0004B005B0803430BD04B005C0D0026334620
:100EB0006542B341D417AD1AA34102DB00200146BD
:100EC00070BD12053018514170BD00000EB5054AC5
:100ED00002920022009213460192FFF742FD03B0F6
:100EE00000BD000033040000811E091F00BFFCD2BA
:100EF00070471140036893430B4303607047000041
:100F000004480149016070470040401301490860EE
:100F10007047C046A0120A40014908607047C046A9
:100F2000E0120A40034908607047C0460149086062
:100F30007047C046D0120A400121C902E94A425016
:100F40007047C04680001349044A42507047C0466B
:100F500080001049014A42507047C0468100060097
:100F600080000C49812242507047C04680000949E8
:100F7000812242507047C0460148024901607047D3
:100F8000588042408200040080220A4380000149C8
:100F900042507047048042402722D20180580840C6
:100FA000704700000149EF4A4250704704080000B2
:100FB000014908607047C04690120A40F0B584B0FD
:100FC000012422022A4B19680392914319604A496D
:100FD0000D686D04FCD5457E25409E69A6437419B5
:100FE0009C612024045D03252C40DE69AE43341946
:100FF000DC61204C256805262660466A37681F623A
:1010000076685E6207262E402660C4697F252D0221
:10101000DE69AE436406640C3419DC610768456818
:1010200082680092C66802690192426902929A69D6
:10103000114C14403A07120B2D03ADB2AA183243DB
:10104000009D2D072D0D1543019A1543029A154356
:10105000007E2843094A0240101998611868039AD3
:101060001043186008688005FCD504B0F0BDC04688
:1010700008010B40001340408D00F0FF72FF0F008D
:10108000012000031B490A6802430A607047C046FA
:10109000014800210160704708030B4080B5012022
:1010A00041020F2002021348FFF723FF80BDC04614
:1010B00080B5034800210322FFF71BFF80BDC04617
:1010C00000010B4080B50B4810213022FFF711FFC3
:1010D00080BDC04607498860074802689202FCD577
:1010E000012212040B6813430B600168C906FCD58A
:1010F0007047C04604010B4004020B40B449012272
:1011000042507047014877490160704700088640A7
:10111000F0B5634A82183B4BC31808794E793A4DB3
:101120003A4C002E23D0202804D00526F6010028B2
:1011300003D003E0364E002800D18826576F2F4099
:1011400037435767976F2F4037439767566B264053
:101150005663966B264096630026566596658F26E5
:10116000F6435F6837405F609F6837409F608E79C5
:10117000096820280BD0002819D1491E5160D76E6C
:101180002F4088210F43D7661746703719E0491E54
:101190005160D16E29401E4F3943D166116F2940ED
:1011A00039431167012149071A4D174609E04908DB
:1011B0005160D76E2F400521C9010F43D7661746EE
:1011C00070373C682C400C433C60D16A0F4C214086
:1011D000D162116B214011630021D16411658F210F
:1011E000C943D46F0C40D4671C680C401C60064394
:1011F000BD2030401168084B0B40C018801C1060A7
:10120000F0BDC0468418000024493E008888FDFFD8
:1012100001040000FFFFFFCF4000FFCF014851490C
:101220000160704704088640112212028150704705
:1012300010B507239B04194092008018024A845875
:101240009C436118815010BD3018000010B5029CFD
:10125000A400001911431943014A815010BDC04632
:101260005018000092008018014A81507047C04613
:101270001018000010B50122120383180C789C602E
:101280004B7883508978014A815010BD0C110000C1
:1012900080B5034940180021024AFFF72AFE80BDAD
:1012A0000418000080FF00000248016801220A4380
:1012B00002607047041886404048016801220A43D2
:1012C000026070470120800202490A6802430A60F6
:1012D0007047C0462890104001480249016070479D
:1012E000008810400100002601480068C0B2704725
:1012F00020901040B0B51122120283580124A3435C
:1013000083500B888C781C438B882343094C1C40EA
:101310008358094D1D40631983508B79CC791C4348
:10132000097A21437E231940801842689A43511854
:101330004160B0BD18670000E798FDFF02480068F3
:101340000421014088087047089110400148006856
:10135000C0B27047249110400148024901607047B3
:1013600004881040030000B110B50A4C20460C3030
:101370001521DA4AFFF7BDFD204610302D213F220E
:10138000FFF7B7FD2168012211402046FFF7B1FDAC
:1013900010BDC0460491104010B5012212038318FD
:1013A0000C789C604978815010BD000080B5032006
:1013B000C20302480021FFF79CFD80BD0091104050
:1013C000034A801802681206FCD481617047C04647
:1013D00008110000B0B5122005242146FFF7D4FD06
:1013E00001252802FFF79EFD13202146FFF7CCFDC3
:1013F0006802FFF797FD142002242146FFF7C4FD81
:10140000FFF7BAFD3520FFF7ABFD2046FFF7A8FD3B
:101410002E20FFF7A5FD2320FFF7A2FD3620FFF7C2
:101420009FFDFFF76DFD0F48FFF77CFD0E20FFF7D6
:1014300089FD0F20FFF786FD1020FFF783FD1120A7
:10144000FFF780FD3B20FFF77DFD0420FFF77AFDCD
:101450002620FFF777FD2420FFF774FD2520FFF7F6
:1014600071FDB0BD00404013F0B581B01E4C1F4966
:101470002046FFF7FFFE1E492046FFF749FE2046A3
:10148000FFF706FF002568460560204629462A46E4
:101490002B46FFF7DBFE204629462A46FFF7C8FE0B
:1014A0007D200602204631462A46FFF7DBFE012753
:1014B00068460760204629462A462B46FFF7C6FEA7
:1014C000204629463A46FFF7B3FE204631463A46C3
:1014D000FFF7C8FE2046FFF711FE03212046FFF765
:1014E000A3FE01B0F0BDC04600008640B841000038
:1014F000BC41000080B5FFF7CBFDFFF7CFFDFFF744
:10150000D7FD0548FFF75AFDFFF7DCFDFFF7B8FDF3
:101510000020FFF7DFFD80BDC441000010B5094C7D
:1015200009492046FFF738FF08492046FFF7E2FE49
:10153000FFF73CFFFFF718FFFFF7C4FEFFF7BCFE05
:1015400010BDC04600801040EC410000EE4100009C
:1015500080B500F00FF8FFF73DFFFFF7CBFFFFF777
:1015600083FFFFF7DBFFB820014900220A5480BD4A
:1015700014002020B0B50D4C2046FFF713FD0C4D94
:101580002846FFF70FFDFFF749FEFFF7E5FE20466F
:10159000FFF7D2FC2846FFF7CFFCFFF7B3FDFFF7BC
:1015A0009BFE1020FFF7A0FCB0BDC04600000A4023
:1015B00000200A4010B5054C0548606000F04EF868
:1015C0000020A0600720206010BDC04610E000E0B1
:1015D0007F38010002480168491C01607047C0461D
:1015E000D000202070B5FFF77FFE0B2816D1FFF743
:1015F000A5FE002812D10A4C0A4D0B4EFFF7A6FE9D
:1016000021784A1C7F2111402A78914202D0227809
:10161000B0542170FFF792FE0128EFD170BDC04693
:10162000F0062020F106202070062020FF21C905A9
:101630000840401A411E8841704700000120C00345
:10164000014908607047C04680E200E00120C00305
:10165000014908607047C04600E100E0FF20000635
:1016600003490A68824303208007104308607047DB
:1016700020ED00E00121C90788437047F0B581B033
:1016800015460446D8171F184740144807420BD088
:101690000126002B12DB0846314600F0C3F9002179
:1016A000284600F0BFF912E000260846314600F057
:1016B000B9F92846314600F0B5F908E0002208469D
:1016C000114600F0AFF92846314600F0ABF9B9B247
:1016D000204600F063FA01B0F0BDC046FFFF0000F5
:1016E000417800780002084300B2704780B5084B8B
:1016F0001870084802607C4800220260AA48032350
:101700008371C1713421425400F01CFD80BDC0467C
:10171000D8052020D800202010B504460A49FEF73D
:1017200071FE01467D20C00000290AD107492046EC
:10173000FEF74CFE01460648002902D12046FEF77E
:1017400081FE00B210BDC04600007A4400007AC499
:1017500018FC00000449884200DC08467D21C900CD
:10176000884200DB0846704718FCFFFFF0B581B0E7
:1017700015460C460646FEF729FE07463046294622
:10178000FEF740FE002800D13546002F00D12C4640
:10179000204601B0F0BD000001782822824B995408
:1017A0004178272299540169D96041691961816999
:1017B000596100899884704780B500F085FE02A0C9
:1017C00000F00CFA80BDC046646973706C617920CA
:1017D00072656164790D0A0070B50446204D287861
:1017E00001260128304611D11E4800782179814216
:1017F00030460BD11C48007861798142304605D1D2
:101800001A480078A179081A411E884121790229D5
:1018100002D16179012921D02168002804D114481E
:101820000068081AFA2819D31148016000F0E4FD95
:101830002079022803D1204601F0F4F902E0204685
:1018400001F0DCFA00F020FE20790649087060798A
:1018500005490870A079054908702E7070BDC04612
:101860000800202009002020100020200A0020204D
:101870000C00202010B586B07D21C900FEF734FC95
:1018800003466846016001AC112105A2204602F022
:10189000E1F800200821224600F0E0FD06B010BD6E
:1018A00054494D453A25326C752E2530336C7553AD
:1018B0000000000080B500F0B1FC3B480021417100
:1018C0008171C171C162016334228154064A116081
:1018D000064A1160064A11602922815401F0A6F8D7
:1018E000044801F02DF880BDB8052020B405202063
:1018F000900520209405202080B54000400880BD40
:10190000B0B50C460546EC48008800F015FB00F029
:1019100085FCE748032141710A218171C5710449A1
:101920000968611AC162342100224254B0BDC04628
:101930003406202010B50446DF48008800F0FCFA89
:1019400000F06CFCDA48032141710A218171C471F5
:10195000016BC16234210122425410BD401EC1B24C
:10196000092904D840B2800004490858704701A0F2
:101970007047C0464E4F4E450000000090410000A9
:1019800010B5044600F04AFCC94802214171092102
:1019900081710021C171C462046334220123835424
:1019A0000248016010BDC04638062020F405202002
:1019B000B0B5044600F0ECF8054600F0E9F8401B2D
:1019C000A042FAD3B0BD0000B0B502460424002105
:1019D0001348F64B0B2A20D87A44127952009744C8
:1019E000140507091C1C1C1C1C110B0E08240CE000
:1019F00010240AE0202408E00120840704E00120EC
:101A0000440401E00120C40618462146FFF7C4FA49
:101A100020400121002800D101460846B0BDC04643
:101A200000200A4080B5001FC2B2042A0AD840B282
:101A3000800005A21058012902D1FFF7B9FA80BD34
:101A4000FFF764FA80BDC0460000000100000010EE
:101A5000000040000040000000000002F0B581B02E
:101A600014460D4607460026002D01D1002C1CD13E
:101A700078B2002819DB002600F0B4F9012812D151
:101A80007800C0B200F0D5F90646012E0BD1002C2B
:101A900009D00027E85D00F0CCF906467F1C012E36
:101AA00001D1A742F6D300F0B6F9304601B0F0BD3F
:101AB000F0B583B01C4617460E460025002E01D116
:101AC000002F4CD10899002C01D1002947D142B2F6
:101AD000002A44DB0190029100F084F90546002FB2
:101AE000009413D0012D11D101984000C0B200F034
:101AF000A0F90546012D09D10024305D00F099F9C7
:101B00000546641C012D01D1BC42F6D30298002881
:101B100023D0012D009C20D1002500F063F901287D
:101B20001BD10198400001263043C0B200F081F97A
:101B300002990546012D10D100200190471C8F42CB
:101B4000314600D30199201800F0CEF80546012D4A
:101B500003D102998F423846F0D300F05CF9284651
:101B600003B0F0BD80B52848002101702548017000
:101B700009480160FFF7ECFCFFF796FBFFF75EFDFD
:101B8000FFF764FDFFF716FDFFF768FD80BDC04657
:101B9000014800687047C046D0002020B0B50A4612
:101BA0000446D3087D20C1007D2B00D30A460502E0
:101BB0006A4380001018FEF797FA291A0648012C8C
:101BC00005D0002C06D10022FFF74CFBB0BD01224E
:101BD000FFF748FBB0BDC0460000864070470000DC
:101BE00008490A780020C043074B1B789A4207D067
:101BF0000878064A105C0A78521C7F2313400B7049
:101C00007047C046F1062020F006202070062020F4
:101C100010B500280CD00178002909D0441CC9B2A5
:101C20000448FFF7CDFB601C217800290446F6D15B
:101C300010BDC04600801040B0B504461C4D1D4884
:101C4000807800280ED0687901280BD029790320EC
:101C5000032904D11848008800F09EF90220287159
:101C6000FFF728FE15488078002809D068790128F8
:101C700003D1204601F0E4FB02E0204601F0D2FB54
:101C80000F488078002811D0687901280ED000F024
:101C9000C5FA2879032803D10748008800F07CF9A9
:101CA00000F0E4FA00F0A2FBFFF704FEB0BDC0466E
:101CB00038062020E804202004062020F0042020FC
:101CC000E004202080B56420FFF70EF980BDB0B598
:101CD0000C4605462046FFF719F92846FFF746F956
:101CE0002046FFF723F9B0BDF0B583B00291019013
:101CF00000F071F800242646254600F041F801283E
:101D00002AD1FF20400077000740FFF7DBFF00F0FB
:101D10004FF806463E4300F02BF8FFF7D3FF6D1C4B
:101D2000E8B20828E9D30298012802D100F04CF863
:101D300001E000F050F8FFF7C5FF00F021F801289E
:101D40000AD1FFF7BFFF00F013F800F044F8FFF7E7
:101D5000B9FF019806700124204603B0F0BD10B50C
:101D600004460846FFF7D8F82046FFF7F1F810BD03
:101D700080B50120C1032420FFF7A9FF80BD00002A
:101D800070B50125EC0324202146FFF7E8FF064E3D
:101D90000C482146FFF700F9204203D10020761CB1
:101DA000F6D170BD284670BD18FCFFFF00000A4048
:101DB00010B50120040403482146FFF7EDF8204048
:101DC000000C10BD00000A4080B501200104252050
:101DD000FFF77DFF80BD80B5012001042520FFF7BE
:101DE000BEFF80BD10B5FFF7F6FF0024FFF7C8FF68
:101DF00001280ED1FFF766FFFFF7DAFF012808D1AF
:101E0000FFF7E2FFFFF75EFFFFF7B2FFFFF75AFFB2
:101E10000124204610BD80B5FFF7D6FFFFF752FF23
:101E2000FFF7AEFFFFF74EFFFFF7D5FFFFF74AFFC3
:101E300080BD70B5054600268020054202D1FFF71F
:101E4000C3FF01E0FFF7C7FFFFF73CFF0024FFF7E8
:101E500097FF01281BD1EDB2FFF734FFFFF788FF92
:101E60006D00761CF0B20828E6D3FFF7B4FFFFF749
:101E700029FFFFF785FF012809D1FFF723FFFFF7AF
:101E800097FF01244440FFF773FFFFF71BFF204635
:101E900070BD0000B0B5A3491CC91CC03CC93CC002
:101EA0003CC93CC0B0BDC04680B522488021FEF789
:101EB0004AF99C482C21FEF746F91D480021017083
:101EC00080BDC046F0B581B00446FFF789FE00280A
:101ED00021DB174D174EC2B20D2A18D029780A2AD5
:101EE00008D100277754002902D0204600F0B0FC2A
:101EF0002F700CE07E2903D84A1C2A70705406E02B
:101F00000020287087480146886A401C8862FFF7D5
:101F100067FE0028DFDA8348416A002903D0016A9E
:101F2000611AFB2901D30021018001B0F0BDC04638
:101F30008C0520200C05202010B58AB003466C4685
:101F4000282104A2204601F085FD2046FFF760FE0F
:101F50000AB010BD24434D442C51332C41424F5202
:101F6000542C25750A00000010B58AB003466C4653
:101F7000282104A2204601F06DFD2046FFF748FE0F
:101F80000AB010BD24434D442C51332C4B454550D1
:101F90002C25750A0000000010B58AB003466C4677
:101FA000282104A2204601F055FD2046FFF730FE0F
:101FB0000AB010BD24434D442C51332C4E4555548A
:101FC00052414C2C25750A0010B590B00346684666
:101FD00006C002AC382104A2204601F03BFD204699
:101FE000FFF716FE10B010BD24434D442C51332C86
:101FF00053544152542C25752C25642C25640A0019
:10200000384800210160364801607047F0B587B05C
:10201000019000200690059004902EA7304C0546B4
:10202000029003902DA0405DFFF7CEFC01214840B7
:10203000625D530006261E400643665553080A405B
:1020400010180B40C018012800D8029904AA515555
:1020500002280DD30120A8400599014304A801716D
:102060004179491C4171039880B23988081803905E
:10207000BF1C6D1C042DD5D104A845790121002D6C
:1020800000D129468171291F0022521A4A41C2718A
:10209000002D12D0039800B2FEF7C2F9064628467A
:1020A000FEF7C9F901463046FEF744F90E49FEF73E
:1020B00004F906900B49086002E00A48006806909F
:1020C000069801998860059848600498086007B0F0
:1020D000F0BDC046FDFFFFFF010003000001020349
:1020E000D4002020F8042020ABAAA64380B5FFF737
:1020F00039FD00F079FFFFF74BFD00F0B9FFFAE77B
:10210000401E032802D8801D014988717047C046CF
:10211000380620200349086201200870486A401CE4
:102120004862704708062020012102460A40430801
:102130000B409A1883080B40D218C00808401018AA
:102140007047000070B5474800240480464804806A
:1021500020462146FFF722FD012528462146FFF7AC
:102160001DFD04202946FFF75DFC05202946FFF7E9
:1021700059FC06202946FFF755FC07202946FFF7A2
:1021800051FC08202946FFF74DFC7D20C600204663
:102190003146FFF703FD28463146FFF7FFFC70BDCF
:1021A0003048008800B270472F48008800B270475E
:1021B00080B52C48002101802B48018000F02EF8CA
:1021C00080BDC04670B50C46FFF7C4FA05462046F0
:1021D000FFF7C0FA0446234E308800B2294600F0CB
:1021E00005FD3080204D288800B2214600F0FEFC1D
:1021F0002880082001242146FFF714FC308803B210
:10220000002004210522FFF739FA288803B20621AD
:1022100007222046FFF732FA70BDC04610B51148BC
:10222000002404801048048020462146FFF7B6FCB5
:1022300001202146FFF7B2FC04202146FFF7F2FB04
:1022400005202146FFF7EEFB06202146FFF7EAFBBB
:1022500007202146FFF7E6FB08202146FFF7E2FBB7
:1022600010BDC0460805202006062020F0B585B028
:10227000604801780020002922D001AC0C340025F0
:102280002F4601A800F0BEFC00281BD02046FFF717
:1022900027FA06460220FFF78BFBBF196D1C0C487E
:1022A000284080084B28ECD33846FEF7B9F8094996
:1022B000FEF740F84B49FEF73DF84E4948600120D3
:1022C00005B0F0BD00204B49087005B0F0BDC04618
:1022D000FCFF00000000964310B546491CC91CC015
:1022E0001CC91CC010BDC046B0B5424D00242C60B6
:1022F0006C60AC60EC602C616C616B20214601F07D
:102300009DFB00281AD03220FFF752FB192007212D
:1023100001F094FB012814D11A20032101F08EFB57
:1023200000280ED01B20002101F088FB2870002817
:1023300009D0FFF79BFF00F059F804E02C7020460D
:10234000B0BD0020287028780124002800D1044660
:102350002046B0BD70B584B00446264E31780020CA
:10236000002939D0684600F04DFC002836D06D4673
:102370002846FFF7B5F9B08102202843FFF7B0F9EE
:10238000F081281DFFF7ACF9308228460830FFF7AE
:10239000A7F9708228460A30FFF7A2F9B0820C35FF
:1023A0002846FFF79DF9F082FEF73AF80D49FDF750
:1023B000C1FF7168FDF779FF05462046FEF73BF83F
:1023C0000949FDF7B7FF2946FDF777FF0146B068D9
:1023D000FDF71AFFB060012004B070BD002030701E
:1023E00004B070BD0000034300007A44014800219E
:1023F00081607047BC05202080B5012081024B48D8
:10240000FDF7A1FE80BDC046F0B585B0019105463F
:10241000203AD0B200215E280391029100D80292A6
:10242000039A019814180298C0000B4908180492E6
:10243000875C039E0120B040384204D0A819C0B286
:10244000E1B200F05FF8761C082EF3D1049A521C1A
:10245000082AE6D105B0F0BDFF41000070B50C467A
:102460000546117800290ED0561CE8B205460835FD
:10247000802D08D8CAB22146FFF7C6FF701C3178FC
:1024800000290646F1D170BDF0B5A1B03C200D4940
:102490000722FFF7E3FA6846441C244D08276E46DE
:1024A00040203070802220462946FDF733FE3C2034
:1024B00081223146FFF7D2FA7F1E8035002FEED100
:1024C00021B0F0BDF8410000B0B5002406A5281BDE
:1024D000007800F02DF8641E20461930F7D1FFF780
:1024E0008BFFFFF7D1FFB0BDAED580A83FD3004032
:1024F0008D142000A1C8DA1281CFD9F1DB40A4A647
:10250000AF00000042B2002A0EDB3F290CD80722A0
:102510000A40012393401F22D20109011140034ABE
:1025200051180A5C1A430A547047C046DC00202048
:1025300080B582B001A900220A7048703C200222B6
:10254000FFF78CFA02B080BDF0B583B0044619489D
:10255000401D029002A801AD294601F038F801277C
:10256000784069880025002921D100281FD1029ECA
:10257000002E1CD010A13046FDF7F0FD01210028EF
:102580000DD00FA13046FDF7E9FD0221002806D04D
:102590000DA13046FDF7E2FD0321002807D1DA48FE
:1025A00001730199C1802046FFF7B4FD3D462846DE
:1025B00003B0F0BD0C0520205354415254000000DC
:1025C00041424F52540000004E45555452414C0078
:1025D000F0B585B00446C148801D049004A803A945
:1025E00000F0F5FF0025012831D104A802A900F070
:1025F000EEFF01282BD104A801A900F0C9FF012793
:102600007840039E310C22D1002820D10298002866
:102610001DDB01980090FFF709F8002817D00098FB
:10262000FFF76AF98949FDF7EDFE00280FD1B6489A
:102630008680042181720299009A8261C161012120
:1026400081700021C1702046FFF764FD3D46284699
:1026500005B0F0BD70B584B00446A048C01D03901D
:1026600003A802A900F0B3FF002501281BD103A88D
:1026700001A900F0ACFF012670400199FF2912D892
:1026800002990A0C0FD100280DD19F4881800521A5
:1026900081720199C172002181700121C1702046AF
:1026A000FFF738FD3546284604B070BDF0B58BB055
:1026B00005468A48001D0A900AA809A900F087FF6C
:1026C0000024012800D083E00AA808A900F07FFFB9
:1026D00001287DD10AA804A900F05AFF012877D16A
:1026E0000AA803A900F054FF012871D10AA802A981
:1026F00000F04EFF01286BD10AA807A900F067FF80
:10270000012865D10AA806A900F061FF01285FD160
:102710000AA805A900F05BFF012859D12E480799A6
:1027200008180599002953DB099F390C50D10899E5
:1027300005294DD87D210901884249D8049E30469B
:10274000FEF774FF002843D003980190FEF76EFF58
:1027500000283DD002980090FEF768FF002837D08F
:102760003046FFF7C9F83949FDF74CFE00282FD154
:102770000198FFF7C1F83549FDF744FE002827D13D
:102780000098FFF7B9F83149FDF73CFE00281FD14A
:102790005D488780089981720661019A4261009ABA
:1027A0008261079A02810124069A002A234600D1F9
:1027B00013464370059AC2610A1F00239E1A5641B0
:1027C0008670491F5A1A4A41C2702846FFF7A2FC78
:1027D00020460BB0F0BDC0460CFEFFFFB0B584B084
:1027E0003E48801D039003A802A900F0D1FE0024FA
:1027F000012827D103A801A900F0CAFE012821D190
:1028000003A8694600F0E3FE01281BD1029D28467B
:10281000FEF70CFF002815D00198FEF707FF0028EF
:1028200010D02846FFF768F80849FDF7EBFD0028AF
:1028300008D135480561012400990029224600D1BC
:102840000A464270204604B0B0BDC0460000FA43BC
:1028500010B50446214822A10522FDF78DFC002871
:1028600020D01E4820A10422FDF786FC002823D09A
:102870001A481FA10622FDF77FFC002822D0174826
:102880001DA10722FDF778FC002821D013481CA1C8
:102890000622FDF771FC002809D1FFF79FFF0028F1
:1028A00009D104E02046FFF74FFE002803D1164867
:1028B000816A491C816210BD2046FFF7F7FE00289F
:1028C000F9D1F4E72046FFF783FE0028F3D1EEE7C5
:1028D0002046FFF7BFFE0028EDD1E8E70C052020D9
:1028E0002441434B2C0000002448332C00000000FE
:1028F00024444F4E452C0000244641554C542C0096
:102900002442414C4C2C000008062020092804D801
:1029100040B2800004490858704701A07047C04683
:102920004641554C540000006041000080B50EC087
:10293000029981600399C1600C3800F001F880BDF4
:102940000021C1600161017770470000F0B583B0DC
:1029500015460E460446244F28463946FDF728FD05
:10296000002800D12F4638463146FDF7A6FCE16825
:10297000FDF74AFC01960126F307A269114602936E
:102980005940FEF7F3FEE06025460C35207F002815
:102990000AD02169019E3046FDF787FC3946FDF7D4
:1029A000C9FC0746314602E02677002701992161DC
:1029B0002068FDF782FC064660682968FDF77DFC0B
:1029C00001463046FDF720FC0646A1683846FDF773
:1029D00074FC01463046FDF717FC626902995140CC
:1029E000FEF7C4FE03B0F0BD17B7D13810B50446EA
:1029F00007480921224600F00AFE06480A2122461D
:102A000000F005FE04480B21224600F000FE10BD38
:102A1000E8042020F0042020E00420204279012056
:102A20000021032A00D80846704700006D480021A5
:102A3000016041608160C1606B480170684801704D
:102A40007047C046F0B583B0044667480178002758
:102A5000002926D001970294047800273D463E467F
:102A60006048C05D002807D0FFF75EFB691C0328A3
:102A700000D829460D4600E0761C7F1CA742EFD304
:102A80002246103A0020811A5141EFB2F3B20122DE
:102A9000BB420AD90C2B019F0AD3102C029C15D0E3
:102AA00007E039463D463E4603E0029C019F00E0B8
:102AB000029CF2B2EBB201209342024600D83A46A1
:102AC0000B2B00D83846084002401046227003B055
:102AD000F0BDC046F0B581B00D46064627480078E7
:102AE0000024012846D126480068281A80097D283C
:102AF00040D324480778002F3CD023488069FEF754
:102B0000B9FD2249FDF762FC002833D12B4800783B
:102B1000012810D13046FFF781FF01282AD11A4839
:102B2000C069FEF7A7FD1C49FDF742FC01240028FF
:102B300020D104461EE0307900281BD114480068DB
:102B4000FEF798FD1349FDF75DFC002812D1002F18
:102B500008D00D48C069FEF78DFD0F49FDF752FC06
:102B6000002807D10D480068291A0124002079297E
:102B700000D30446204601B0F0BDC046D905202050
:102B800034062020DD042020380620200000964353
:102B9000040520200000C84300009041FC042020D0
:102BA00080B506490978012902D1FFF737FF80BDBA
:102BB00001790020401A484180BDC046DA05202036
:102BC00007490A780079074B9854501C0F2202409D
:102BD0000A70054801780F2901D8491C0170704717
:102BE000DC052020E0052020DB05202002460A32FB
:102BF0008A4201DA10B270470A38884200DC08467F
:102C000000B2704780B582B0034601A93B2008702E
:102C10000E206A46106068200122FEF749FF02B0CC
:102C200080BD0000F0B589B006463420325C3046E5
:102C3000303031462C31002A00D10846006802901D
:102C4000B079FFF763FE034604AD11244CA2284679
:102C50002146039400F0FEFE0027384639462A46F6
:102C6000FFF7FCFB0298FEF705FE2B20335C0120EA
:102C7000194601405A08024051189A080240891822
:102C8000DA0802408818694608603FA228462146B3
:102C900000F0E0FE102138463C4601942A46FFF73A
:102CA000DDFBB068FDF7CEFB03463BA22846039F41
:102CB000394600F0CFFE182120462A46FFF7CEFB0A
:102CC0002024335F2220305E6946086034A2284603
:102CD000394600F0BFFE019F384621462A46FFF7DD
:102CE000BDFBF069FDF7AEFB0446B069FDF7AAFB3A
:102CF0000346684604602DA22846039900F0AAFE08
:102D0000282138462A46FFF7A9FB3046343071792E
:102D100003290FD1F079FEF721FE034604AC1121FF
:102D20009A4A204600F096FE002030212246FFF706
:102D300095FB1DE00078002805D0002030211FA25F
:102D4000FFF78CFB14E02920305C002805D02A20F6
:102D5000305C002807D121A206E00020302123A208
:102D6000FFF77CFB04E019A200203021FFF776FB7F
:102D700000203821864AFFF771FB09B0F0BDC0463C
:102D800051322025730000004D41534B3A25582005
:102D9000434E543A257500004552523A2535640099
:102DA00050574D3A25642F25640000005941573A89
:102DB000256420524154453A25640000524553553C
:102DC0004C54204C4F434B4544000000413A424C88
:102DD00041434B204C4F434B45440000413A574838
:102DE000495445204C4F434B45440000413A41551E
:102DF000544F20444554454354000000F0B587B07B
:102E000004463420225C2046303021462C31002AF2
:102E100000D1084600680190A079FFF777FD0346CE
:102E200002AD112740A22846394600F013FE0026C5
:102E3000304631462A46FFF711FB0198FEF71AFD8E
:102E4000E068FDF7FFFA034639A22846394600F04C
:102E500001FE102130462A46FFF700FB6069FDF7AE
:102E6000F1FA01902069FDF7EDFA034668460199F1
:102E7000016032A22846394600F0ECFD18213046A8
:102E80002A46FFF7EBFAA38C30A228460197394671
:102E9000374600F0DFFD202138462A46FFF7DEFAEC
:102EA0002826A05D2721625C2BA32CA1002A1A46AC
:102EB00000D10A4669460A60002800D127A328A24B
:102EC0002846019900F0C6FD384631462A46FFF7EC
:102ED000C5FA20463430617903290FD1E079FEF735
:102EE0003DFD034602AC1121284A204600F0B2FD08
:102EF000002030212246FFF7B1FA0DE000780028CB
:102F000005D0002030211AA2FFF7A8FA04E0002023
:102F100030211BA2FFF7A2FA002038211C4AFFF73C
:102F20009DFA07B0F0BDC046513320257300000064
:102F300042414C4C3A252B34644D4D00543A252BDC
:102F4000336420453A252B33640000005345525624
:102F50004F3A2534755553004F4B00002D2D00007E
:102F60004C494E4B3A2573205649533A257300007D
:102F7000484F4C44494E47202D35434D000000003A
:102F80004B313D4E45555452414C0000CF45000059
:102F90006A45000080B5CD48FFF7D2FCC549002046
:102FA00008600A4908600A4908600A4908600A4935
:102FB00008600A4908600A4908600A490870E74938
:102FC000C862086334228854C87180BDB8052020C7
:102FD000B4052020D800202000062020FC05202059
:102FE000F4052020D9052020B0B582B0DB4D382172
:102FF0002846FDF7A8F818480024046044601748E4
:10300000046044601648046044600220A880AC71EB
:1030100014486946486014480860AC481349224681
:103020002346FFF783FCFFF7C3F8FEF7E9FFFEF73F
:103030003BFF2046FEF7B0FFFFF756F9C84908707E
:103040006E20FEF7B5FCFEF7B7FBFEF7A1FD574972
:10305000086002B0B0BDC046E8042020F004202083
:10306000E004202000803B4500000C438FC2753EE9
:10307000F0B595B005464D4801686F1A052F00D28E
:1030800092E00560ED4805602846FEF71BFF0AAE9A
:103090003046FEF7FFFE3046FEF77EFB0526322F58
:1030A00000D83E463046FFF755F9AD4C207004A8D5
:1030B000FFF712F9069FED4887613046FDF7BBF92F
:1030C0003B49FDF737F922460090A74E11780020C2
:1030D00000290CD03178002909D0A248016838466F
:1030E0001446FDF7E2F80099FDF724F92246DF4C7B
:1030F000E0619C4807601078307001A8FEF786FFF9
:1031000003980C9002980B9001980A900C98A0607C
:103110000AA88079262160542B210B9A625400283A
:1031200004D02448056024480C99016020790228C5
:1031300005D16079012802D00AA8FFF741FD284691
:10314000FFF754FC2846FEF777FD6079012808D187
:103150002079022815D10AA800992A4600F074FAAD
:1031600019E0FFF75BF83420205C61792279032AAB
:103170000BD1022909D1002807D0284600F078F9A0
:1031800009E0284600F070FB05E0022903D1002881
:1031900001D0206BE062FFF703F82084FFF704F80A
:1031A00060842046FEF718FB15B0F0BD0005202016
:1031B00000007A44FC04202004052020F0B581B0F2
:1031C00016460D460446664F38780021002810D078
:1031D0008F480068301A80097D280AD3E848806942
:1031E000FEF748FA3249FDF7FFF80121002800D127
:1031F0000146A079002836D02E48002202602E4ECB
:10320000002917D138782D4E002813D0A068FEF77A
:1032100031FA2B49FDF7F6F8284E00280AD1D84894
:10322000C069FEF727FA2749FDF7ECF8234E00287E
:1032300000D1254EA16825482A46FFF787FB0446A2
:1032400030462146FCF7E0FFFEF766FA05463046B9
:103250002146FDF72AF8FEF75FFA01462846FEF7F9
:10326000B1FF01B0F0BD13480168002900D106602C
:103270000068301AFF216031884206D302200146DF
:103280003246FEF733FA01B0F0BDA0680021FDF729
:103290009DF8002805D05020B421FEF793FF01B01F
:1032A000F0BDB4205021FEF78DFF01B0F0BDC04647
:1032B000000096439005202000004D4300005C4331
:1032C0000000A0420000404100007543940520200A
:1032D00070B582B0044601AD00262E70FFF75AFE8D
:1032E0002846FFF7AFFB1C49087029782922F44DC6
:1032F000A954401E321A42412A202A54002913D0D0
:103300001748007800281BD001266E71EB48046036
:10331000FFF76CF813480021016013480170A961A0
:10332000E961AE7102B070BD032068710A20A87116
:103330000620E871FEF772FFFFF778FB02B070BD60
:10334000032068710A20A8710520E871FEF766FF66
:10335000FFF76CFB02B070BDDA0520203806202094
:10336000DD042020D4052020DC042020B0B58CB062
:10337000044601AD2846FEF78DFDFFF70BFEFEF774
:103380004DFF2878002814D001A84078002807D0E5
:103390000598FEF76FF97949FDF70AF8002811D171
:1033A000E248032141710A2181710821C1710CB0E9
:1033B000B0BDDE48032141710A2181710721C1712D
:1033C0000CB0B0BDD9490120487105228A71D64A96
:1033D0001460104A0A61684D2A88911C521C0E4BD9
:1033E0001A4200D0114629800C4A10700C48046023
:1033F0006448046088B2FEF7CFFD63480460288803
:103400003121CA433221FEF7DFFD0CB0B0BDC0460A
:103410003406202000004842FFFF0000F005202075
:10342000F805202080B5EA490979022902D1FFF781
:103430004FFF80BDFFF79AFF80BDC04638062020B1
:1034400080B50246E2480179022907D18079032834
:103450000AD001200021FEF749F980BD46480088C6
:10346000FEF76AFDFEF726FA80BDC046380620202A
:10347000F0B58FB0039004AD2846FEF70BFD3E4833
:103480000088A9880C1A00200190061B66410127BC
:103490000D990029384600D1084602910640687807
:1034A0000028394609D00A98FEF7E4F83349FCF7BA
:1034B000A9FF0121002800D101460091FEF7AEFED0
:1034C00004A8FEF769F9E648016BC1622D4D286832
:1034D0000399081A642805D327480088FEF744FD9D
:1034E00003982860012E029A11D10C98002801D06F
:1034F0002549086004A8C078002803D104A8807A70
:10350000052804D10A20FEF715FA0FB0F0BD019886
:10351000011B61410120002A00D110460140794081
:10352000194804680398021BFF20F430431C002C48
:1035300013D0002911D19A420FD80099012911D135
:1035400012490A68002A12D00399891A81420CD9BB
:103550000820FEF7EFF90FB0F0BD0820FEF7EAF9FA
:103560000FB0F0BD0948019901600FB0F0BD03989C
:1035700008600FB0F0BDC0460406202000002041C6
:1035800038062020FC05202000062020F4052020FD
:1035900070B582B00E4605460024002D14D0002ED2
:1035A00012D0286800280FD001A900F089FD3060F2
:1035B00029680198884207D00178002902D02C2977
:1035C00002D1401C28600124204602B070BD70B5B5
:1035D00082B00E4605460024002D15D0002E13D0D3
:1035E0002868002810D001A90A22FCF7D5FD306018
:1035F00029680198884207D00178002902D02C2937
:1036000002D1401C28600124204602B070BDB0B534
:10361000154604460846FEF7D7F90021A17001219E
:1036200048402278904201D0207065606068281A76
:103630001E2807D320786278824203D06070002869
:1036400000D0A170B0BD0000F0B581B014460E46A8
:103650000546F1480068211AF14FF962B879AF22A6
:103660009200914211D803280FD0B869FEF702F8F2
:103670005849FCF79DFE002806D10220042122466D
:10368000FEF734F801B0F0BDB879032809D002285C
:103690000CD0012808D12846214600F09DF801B041
:1036A000F0BD204600F00EF801B0F0BD28463146CE
:1036B000224600F03FF801B0F0BDC046340620209D
:1036C0003806202010B50446FEF73CFD154800687A
:1036D000201A782824D3FEF7A1FDCF480068201ACD
:1036E000CF4CE062FFF7A2F91148007801280DD015
:1036F00000280ED1022060710420A0710020E0712A
:10370000E06A206334200121215410BDFEF7D2F875
:1037100010BD032060710A20A071342000212154C3
:1037200010BDC046D80020203406202038062020B6
:10373000D805202070B514460D460646B6480068E8
:10374000201A2149884205D3022003212246FDF791
:10375000CDFF70BDAF218900884212D81B48007888
:1037600000280ED0AE488069FDF784FF1949FCF7A8
:103770001FFE002805D1022004212246FDF7B6FFD6
:1037800070BD30462146FFF7A5F9012812D1314D11
:103790002868002800D12C60CD200146FEF712FDDC
:1037A0002868201A1E280DD3002001462246FDF766
:1037B0009DFF70BD27480021016030462946224602
:1037C000FFF7FCFC70BDC046584D0000DD04202012
:1037D0003806202000000C42B0B50C460546FFF725
:1037E000DFF9002804D0D2200146FEF7EBFC1CE0F4
:1037F000AD79D2200146FEF7E5FC002D15D0134827
:103800000168002920D0601A5A2811D310480121DC
:1038100001701048002101600F4801600F48FFF758
:103820008FF87F480221817102E008480021016081
:1038300079480068201A0B49884204D302200121EC
:103840002246FDF753FFB0BD0460F1E7B405202028
:10385000D9052020B805202090052020940520209F
:1038600038062020B1040000F0B591B0044606AE41
:103870003046FEF70FFB684800680594241AB088AC
:103880000490307B0290F788644805880F98039075
:10389000FEF7C4FC62480194C4623046FDF77CFF29
:1038A000781B00210A1A42410298401E0F1A474114
:1038B00017400498401B0E1A039946410120002925
:1038C00000D108460640574C2068059D281A6428F8
:1038D00004D352480088FEF747FB25605248012E6A
:1038E00018D10E99002901D0504A116006A9C97853
:1038F000002903D106A9897A052905D10A2029467C
:10390000FDF7FEFF11B0F0BD06AA04294AD0917858
:10391000002947D1C7300199814205D9092029469C
:10392000FDF7EEFF11B0F0BD3D488079052820D1AC
:10393000002F03D00E983D49086007E0012E13D1F7
:1039400006A8807A401EC0B204280DD206A8807A4C
:10395000FEF7D6FB3248807905280AD10620304987
:103960008871012E07D00AE031480168691AC82918
:1039700030D2012E03D106A8807AFEF7C1FB284879
:103980008079052806D029480168681A002903D0E3
:10399000FB2801D211B0F0BD08202946FDF7B0FF89
:1039A00011B0F0BD019C84421ED80D9981421BD8F4
:1039B00006A84078002807D00C98FDF75BFE1E494A
:1039C000FCF7F6FC002822D10A202946FDF798FFD3
:1039D00011B0F0BD17490A78032A0BD307202946F6
:1039E000FDF78EFF11B0F0BD09202946FDF788FFD5
:1039F00011B0F0BD521C0A700560084800883121E2
:103A0000CA433221FEF7E0FA012EB4D0B7E72046D0
:103A1000FDF7B6FF11B0F0BD3406202004062020CB
:103A200038062020FC0520208813000000062020F6
:103A3000F8052020F00520200000204180B582B04C
:103A400001AB18705970682002221946FEF706F87B
:103A500002B080BD0FB41CB50246002007AC00299F
:103A60000BD0491E01910092064B6A4621460698EA
:103A700000F0B4F8009A002111701CBC08BC04B01E
:103A800018470000514000002021020C01D01021F5
:103A90001046020A01D010460839020901D010462A
:103AA000091F820801D01046891E420801D0881ED5
:103AB0007047081A70470000004870470000202037
:103AC00010B504460868496800F002F8206010BD8F
:103AD000F8B504460D466A4600F0C6FA00987E30F6
:103AE000009000281CDC0022134620462946FDF7E2
:103AF00067F915D0264E00213046FDF791F90746AB
:103B000020462946FDF770F90446374039463046CD
:103B1000FDF786F960002FD1022000F051F82BE06C
:103B20000098FF282EDB00210846FDF779F90321D4
:103B30008905084006460022134620462946FCF720
:103B400059FE01D8012500E00025022000F038F8D8
:103B5000FF24E405002E09D0002D02D001208005AD
:103B600001E00120C005B04200D00A4C0421084603
:103B7000FDF756F9002D01D02046F8BD0120C00701
:103B80006040F8BD20462946FDF72EF9F8BD00003B
:103B900008080000FFFF7F7F02E008C8121F08C16D
:103BA000002AFAD1704700007047000000000000B2
:103BB000002001E001C1121F002AFBD17047000064
:103BC00001490860704700000000202030380A28B2
:103BD00001D201207047002070470000FFB591B06E
:103BE0000F460546002606E025280AD0149A1399A8
:103BF00090476D1C761C28780028F5D1304615B00A
:103C0000F0BD002400940121F34A029400E0044333
:103C10006D1C2B780846203B98401042F7D128783D
:103C20002A280ED0022128780246303A092A15D8CF
:103C3000009A0A235A43303A80180C436D1C0090B6
:103C4000F1E701CF0090002805DA0120400304438A
:103C5000009840420090022004436D1C28782E28D2
:103C600015D10420044368786D1C2A280AD101CF9D
:103C70006D1C02900BE002990A2251433039401822
:103C80006D1C02902878014630390929F3D928782B
:103C90006C2810D006DC4C281AD068280ED06A2870
:103CA00017D104E0742813D07A2812D110E0012033
:103CB000400504430CE00121090501E00321090549
:103CC0000C436978814203D10120000524186D1C42
:103CD0006D1C287803906E281ED00CDC632831D030
:103CE00004DC00288AD0582811D1B2E064287BD0A7
:103CF00069280CD178E073282DD004DC6F2870D0AF
:103D0000702804D1A7E075286CD078286BD0149A5D
:103D100013999047761C62E06002400F022807D09A
:103D200003280AD0042838680AD006603F1D56E0F0
:103D30003868F11706604160F8E738680680F5E7F3
:103D40000670F3E73878694608740020487404A8C0
:103D50000390012003E0386803900020C0433F1D1A
:103D600061070FD5002101E00199491C029A0191D8
:103D7000914213DA8142F7DB019A0399895C0029A9
:103D8000F2D10BE0002101E00199491C019181422F
:103D9000FADB019A0399895C0029F5D10199009811
:103DA000139A401A00902146149B00F03BF90199A8
:103DB0008019461807E0039803990078491C03917D
:103DC000149A139990470198401E0190401CF2D11B
:103DD0002146149B139A009800F014F986196D1C63
:103DE00009E741E033E034E00A2000210490059126
:103DF0006002410F022905D001CFC2179446032962
:103E000005D007E0FF1DFF08FF0003CF06E000B26A
:103E1000C2179446042902D140B2C1178C46002231
:103E20006146944506DA0A460021404291418C469B
:103E30002D2102E0210504D52B216A4611760121AE
:103E400003E0E10701D02021F7E7019154E00A20C7
:103E50000BE0102009E0102004900021042004430E
:103E600008200591029003E00820002105910490AC
:103E70006002410F022905D001CF00229446032998
:103E800006D006E0FF1DFF08FF0003CF8C4603E0CD
:103E900080B2042900D1C0B20021019121072BD5A5
:103EA0000399702906D0049A1021059B4A401A43B1
:103EB00005D00EE040216A461176012108E06146F6
:103EC000014306D030216A461176039951760221CA
:103ED0000191049A0821059B4A401A430CD161467E
:103EE000014301D1610707D530216A4611760121CE
:103EF00001910299491E02910399582904D037A1D2
:103F000003910FA90F910DE039A1F9E76146059BD7
:103F1000049AFCF7B0FA039B8C469B5C0F9A521EE6
:103F20000F92137061460143F0D10F9807A9081A48
:103F300020300390600704D50120000484430298D8
:103F400001E0012002900399884201DD401A00E05F
:103F5000002041180290019809180098401A00901A
:103F6000E00306D42146149B139A009800F05AF8F7
:103F700086190020049008E006A9085C149A139999
:103F800090470498401C761C049001998842F3DB0A
:103F9000E0030CD52146149B139A009800F042F8D8
:103FA000861904E0149A302013999047761C0299E0
:103FB000481E02900029F5DC08E00F980F99007860
:103FC000491C0F91149A13999047761C0399481E27
:103FD00003900029F1DCFBE609280100303132337F
:103FE0003435363738396162636465660000000035
:103FF000303132333435363738394142434445461F
:1040000000000000F8B5044600251E461746880447
:1040100004D405E039462020B0476D1C641EF9D554
:104020002846F8BDFFB50446002581B01E46C803EA
:1040300001D5302700E02027880404D505E0384664
:104040000399B0476D1C641EF9D5284605B0F0BD34
:104050004A68002A06D00A68531C0B601070486832
:10406000401E48607047000070B514460022226070
:104070004B000F4A5B08934219DA02461A4316D0E6
:1040800001221205934201DB226807E03622FCF789
:1040900006FF4B005B083522D2432260054D1B0D05
:1040A0005B19D2182260044A1140044A891870BD75
:1040B0000000F07F02FCFFFFFFFF0F800000E03FE9
:1040C00008B50A460021009101466846FCF764FAEB
:1040D000009808BD004040404040404040404141C1
:1040E00041414140404040404040404040404040CD
:1040F0004040404040050202020202020202020267
:104100000202020202202020202020202020200263
:1041100002020202020290909090909010101010F3
:10412000101010101010101010101010101010108F
:104130000202020202028888888888880808080823
:1041400008080808080808080808080808080808EF
:104150000202020240000000D54000000000000002
:10416000C945000009450000C24500001C4500008B
:104170002C450000F74400005A450000624500004D
:104180000145000022450000000000000000000082
:104190009B45000083450000B64500003545000002
:1041A000114500004D450000414500008D450000CF
:1041B000A94500007845000008000000007D0000CF
:1041C00000010000030000000000000000000000EB
:1041D000400000000000000000000000020000009D
:1041E00009000000010000002C00C441080000008C
:1041F00018000000003000000021007F22000700AE
:1042000000000000000000183C3C181800180036A0
:104210003600000000000036367F367F3636000C50
:104220003E031E301F0C00006333180C6663001C35
:10423000361C6E3B336E00060603000000000018BB
:104240000C0606060C1800060C1818180C060000C0
:10425000663CFF3C660000000C0C3F0C0C000000AC
:10426000000000000C0C060000003F0000000000F1
:10427000000000000C0C006030180C060301003E2A
:1042800063737B6F673E000C0E0C0C0C0C3F001E22
:1042900033301C06333F001E33301C30331E0038D1
:1042A0003C36337F3078003F031F3030331E001C14
:1042B00006031F33331E003F3330180C0C0C001E56
:1042C00033331E33331E001E33333E30180E0000CE
:1042D0000C0C00000C0C00000C0C00000C0C061860
:1042E0000C0603060C180000003F00003F0000060B
:1042F0000C1830180C06001E3330180C000C003E51
:10430000637B7B7B031E000C1E33333F3333003F44
:1043100066663E66663F003C66030303663C001F1C
:1043200036666666361F007F46161E16467F007F7D
:1043300046161E16060F003C66030373667C0033A8
:1043400033333F333333001E0C0C0C0C0C1E00783F
:1043500030303033331E006766361E366667000F16
:1043600006060646667F0063777F7F6B63630063A4
:10437000676F7B736363001C36636363361C003FA7
:1043800066663E06060F001E3333333B1E38003F81
:1043900066663E366667001E33070E38331E003FE2
:1043A0002D0C0C0C0C1E003333333333333F0033EE
:1043B000333333331E0C006363636B7F77630063B7
:1043C00063361C1C3663003333331E0C0C1E007F17
:1043D0006331184C667F001E06060606061E0003A3
:1043E000060C18306040001E18181818181E000817
:1043F0001C36630000000000000000000000FF0CFD
:104400000C18000000000000001E303E336E000754
:1044100006063E66663B0000001E3303331E00386E
:1044200030303E33336E0000001E333F031E001C4D
:1044300036060F06060F0000006E33333E301F07AE
:1044400006366E666667000C000E0C0C0C1E003003
:104450000030303033331E070666361E3667000ED6
:104460000C0C0C0C0C1E000000337F7F6B630000F3
:10447000001F333333330000001E3333331E00007C
:10448000003B66663E060F00006E33333E30780018
:10449000003B6E66060F0000003E031E301F000842
:1044A0000C3E0C0C2C18000000333333336E00002C
:1044B000003333331E0C000000636B7F7F36000037
:1044C0000063361C36630000003333333E301F0078
:1044D000003F190C263F00380C0C070C0C38001854
:1044E00018180018181800070C0C380C0C07006E70
:1044F0003B00000000000057414954204B3233304C
:1045000000484F4C44202D35004C45415645204134
:10451000004D5055204E4545444544004252414BC4
:10452000450042414C4C20444F4E45004C415020E8
:10453000444F4E45005350494E2F574952494E471C
:10454000004E4F204B3233302041434B00414C4909
:10455000474E2041204D41524B00544F202B3543B4
:104560004D00544F202D35434D004B32204D4F44CC
:1045700045204B3320474F004B32333020464155C6
:104580004C54004C494E45204C4F5354004B323351
:10459000302F564953204C4F5354004C45415645FB
:1045A0002054494D454F55540042414C4C205449EC
:1045B0004D454F5554004C41502054494D454F55A1
:1045C0005400464F4C4C4F57005245414459004609
:1045D00041494C3A25730000F845000000002020B6
:1045E00008000000983B0000004600000800202062
:1045F000F0160000B03B00000000000000000000CA
:04000005000000C136
:00000001FF
