:020000040000FA
:1000000010172020D5000000D9000000DB00000000
:1000100000000000000000000000000000000000E0
:10002000000000000000000000000000DD000000F3
:100030000000000000000000DF0000006D1800005C
:10004000E3000000E3000000E3000000E300000024
:10005000E3000000E3000000E3000000E300000014
:1000600000000000E3000000E300000000000000CA
:1000700000000000E3000000E30000007D18000025
:10008000E3000000E3000000E3000000E3000000E4
:10009000E3000000E300000000000000000000009A
:1000A000E3000000E300000000000000000000008A
:1000B000E300000000000000E3000000E300000097
:1000C0000348854600F004FD00480047D9210000A0
:1000D0001017202003480047FEE7FEE7FEE7FEE793
:1000E000FEE7FEE7C100000030B50B4601460020E8
:1000F0002022012409E00D46D5409D4205D31D462E
:100100009540491B2546954040191546521E002D25
:10011000F1DC30BD70B500242546002801DA012449
:100120004042002901DA01254942FFF7DDFFAC42D8
:1001300000D04042002C00D0494270BD03460B4322
:100140009B0703D009E008C9121F08C0042AFAD28D
:1001500003E00B780370401C491C521EF9D2704713
:10016000D2B201E00270401C491EFBD2704700224F
:10017000F6E710B513460A4604461946FFF7F0FFA6
:10018000204610BD30B505460020034600E05B1C4C
:10019000934205D2EC5CC85C201A01D1002CF6D148
:1001A00030BD0000F7B5009C0F4600262578641C82
:1001B000002D05D000F030FA0068405DC007F5D191
:1001C0002B2D02D02D2D18D0641E39462046029AC0
:1001D00000F02FFA002F04D03968A14201D1009914
:1001E00039607105022400290BDA4042002803DD42
:1001F00002F064FE0460A007FEBD012080020643F9
:10020000E3E70028F8DA02F059FE04600048FEBD7A
:10021000FFFFFF7FF8B502464A40D40F42004B0073
:1002200052085B089A4202D20246084611464A002A
:1002300023D0C30D4A00DDB2120EAD1A202D35DADF
:1002400049020126490AF6058A19002C00D05242BB
:1002500020214F1B1146B9402A411018C20D9A4265
:1002600021D0002C17D0012D08DCDA05801AD20F1E
:100270008019D207DBB200F044FAF8BDDA05801A23
:10028000012340001B06C01880185A428018CA0F6C
:100290001043490007E04908C2071143DA05801AF4
:1002A00080194008801800F024FAF8BD610001228E
:1002B000511A001BF7E70122D2075140AAE7012299
:1002C000D2075040A6E7024670B54A40D30FDB077D
:1002D00040002DD04A002AD0010E140E0002120256
:1002E0000919400A520A8418E50104465443000AD9
:1002F000120A2E045043A4194219200CC543AA180F
:10030000120C0125AD03521C521912047F3924042A
:1003100000D0521C104301D44000491EC2B20C064A
:10032000C0092018401C4008802A02D003E00020A9
:1003300070BD40084000002900DA0020184370BD5D
:1003400070B502464A40D50F40004A00ED0740080C
:100350005208002814D0002A12D0C40DD30D410237
:100360000120C0055202490A520AE41A091812185B
:100370007D34914201D3641C00E04900002C01DA75
:10038000002070BD0023914201D3891A0343400825
:1003900049000028F7D100290AD0914202D1012159
:1003A000C90705E0914201D2012101E00121C943C1
:1003B000E005C018401900F09CF970BDF0B50C467E
:1003C0005C4085B0E40FE40703944C000026640809
:1003D00059009446490802460296224321D06246BB
:1003E0000A431ED06200570D4A000E032303550D29
:1003F000012402462C492405781B1B0B360B4018A0
:1004000023432643614600901C46501AB44103D34F
:100410000098401C009002E0921800985B41002870
:1004200003DA0020014605B0F0BD002001210905D6
:100430000746864611E064461D46141BB54106D3A7
:100440006546521BB341744607430C43A646CD078D
:1004500040084908284392185B4105460D43EAD1FC
:100460001046184313D06046194650407140084367
:1004700006D06046101AB34106D20122002306E0DE
:1004800000220123DB0702E00122D243531000982F
:1004900074460105381C6141029C039D00196941A5
:1004A00000F068F9BFE70000FD0300000122D20759
:1004B000002800DB101A002900DB511A814201D804
:1004C00001207047002070470122D207002800DB7E
:1004D000101A002900DB511A814201D20120704715
:1004E000002070470122D207002800DB101A0029E3
:1004F00000DB511A814201D3012070470020704770
:100500000122D207002800DB101A002900DB511A53
:10051000814201D90120704700207047C217C10FE6
:10052000504010B54018CA079623002100F0E9F8A2
:1005300010BD10B500229623114600F0E2F810BD60
:100540000EB505490291002100910A460B46019122
:1005500000F01DF903B000BD33040000C20F4100DC
:1005600040020123400ADB05D207090EC0187F298B
:1005700001DA00207047962903DC9623591AC840F7
:1005800001E096398840002AF4D040427047C20FFB
:10059000D207400040080BD0C10D0723DB01C9186A
:1005A00040020905400A1143C20840071143704741
:1005B000002001467047F0B51FB40646002082B007
:1005C00005464024019100901BE0019922460F4608
:1005D000304600F09FFA049A059B801A994110D387
:1005E00010461946224600F085FA361A8F410197C7
:1005F000224601200021009F00F07CFA38184D416E
:1006000000902046641E0028DFDC019B00982946EC
:10061000324607B0F0BD000000487047983900002E
:1006200010B50446FFF7F8FF0068005DC007C00F73
:1006300010BDF7B582B0029C00272078641C1546D7
:100640000197302802D0002D15D015E02078012721
:10065000641C782804D0582802D0002D09D00BE063
:10066000002D01D0102D07D1002710252078641C03
:1006700002E0082500E00A250026009610E0009917
:10068000012769430818020C294680B27143009083
:100690008E183804864201D3012001902078641C12
:1006A000294600F05BFA0028E9DA0398002805D013
:1006B000002F01D0641E00E0029C04600198002815
:1006C00006D002F0FBFB02210160C81E05B0F0BDA0
:1006D000009930040843F9E77CB5002305460093F0
:1006E0006846019300F065FA6946284602F0EAFB85
:1006F0007CBD002904DA401C490001D140084000BB
:10070000704770B40024050C05D11024000402D1F8
:10071000002921D01124050E01D100020834050F53
:1007200001D10001241D850F01D18000A41C0028E7
:1007300001DB4000641C002908D020252E1B0D463B
:10074000F540A14000D001212943084301061B1BAD
:10075000000ADB1D02D5002070BC7047DB051818AD
:1007600080180029F8DA401C4900F5D170BC400817
:100770004000704710B5002B08DA0024401C61418E
:1007800092185B411A4301D14008400010BDF0B5FA
:100790001FB482B005460C0003D0084602F076FB79
:1007A00002E002F073FB203002460090214628460A
:1007B00000F0A0F9049B059A04460F461843114324
:1007C000084314D0184610431BD0009840210A1A41
:1007D0001846059900F09EF905460E46009A0599BF
:1007E000049800F087F9084305D0012004E0204672
:1007F000394607B0F0BD0020C11705430E432C4316
:10080000374300990E986305401A7905E40A0022DF
:100810000C43FD0A0A3002D500200146E9E7010534
:10082000101969410C9C0D9D00196941FFF7A2FF49
:10083000DFE70000F0B507460846584087B0C00F14
:10084000049048000E46590040084908BC1A8841E7
:1008500005D2384631461E4617460B46024658001A
:10086000400810434CD0300D039040055900400D16
:10087000490D0590401A0290402872DA18030121B0
:10088000000B09050843019004980092002805D048
:100890000199524200208841009201900298402123
:1008A0000A1A0199009800F025F905460C466B4696
:1008B00007CB00F040F9C0197141039A0E0D0023D7
:1008C000D71756401A467A40164344D0049A002A55
:1008D0002DD0029A012A039A15DC1205C01A914103
:1008E00001263605001C7141D20F059ED2070093E8
:1008F000019202962A462346FFF749FF07B0F0BD52
:1009000038463146FAE71605224A0F46B218C01A91
:10091000B74101210905001C4F4100187F411146D4
:1009200018187941E20F10436D19644113E0E20792
:100930006D0815436408C2071443039A0126120583
:10094000C01A91413605001C7141CE074008304362
:100950004908C01851412A462346FFF70BFFCDE74F
:10096000FFE7049801224000C117121A00238B41AF
:1009700004983146C417381AA141EEE730B4012477
:10098000E407634030BC55E730B40124E40761401C
:1009900030BC4FE70000E0FFF0B51FB488B00B9902
:1009A0000998002448400999C00F49004908099155
:1009B000C0070B990090490049080B9109990898C4
:1009C000A64608431CD00B990A98084318D00998EA
:1009D00001244000420D4800410D09982405000300
:1009E000000B204309900B980003000B20430B9051
:1009F00050181C494018002201901446104605E08A
:100A0000002001460DB0F0BD032801DA034600E0E6
:100A100003239C46C11A0AAE0AE05F0008ADED5BF5
:100A20004F00F75B7D430027AA187C41491C5B1EE1
:100A30006145F2DD410004AB5A522104120C0A4315
:100A4000240C401C0828DFDB0198029000997046B6
:100A500001910090059B049A07990698FFF797FE6D
:100A6000D0E700000DFCFFFF4A0009030123090B3A
:100A70001B0519430A4B10B5520D9A4202DA0020A9
:100A8000014610BD064B34339A4203DC9A1A00F03B
:100A900041F810BD034BD21800F02CF810BD000037
:100AA000FF030000CDFBFFFF10B5002904DB01248C
:100AB000E40740428C412146002B04DB1C46012305
:100AC000DB075242A341994200D1904210BD000081
:100AD000064C0125064E05E0E36807CC2B430C3C91
:100AE00098471034B442F7D3FFF7EEFA5C3D0000AC
:100AF0007C3D000010B5202A04DB0146203A9140DD
:100B0000002010BD914020239C1A0346E340194366
:100B1000904010BD10B5202A04DB0846203AD04092
:100B2000002110BD0B46D340D0402024A21A914092
:100B30000843194610BD10B5202A06DBCB1708461E
:100B4000203A1041C1170B4306E00B461341D04039
:100B50002024A21A91400843194610BD3A2800D219
:100B60003038202302469A43412A01D310463738B1
:100B7000884201D30020C043704700000FB400B585
:100B800089B00CA900910B990023CB60204B214A1E
:100B900006930792042201921F4A02921F4A08926A
:100BA00002466B46002000F0CAF809B008BC04B049
:100BB000184770B586B006460020C043019000205B
:100BC00015460C460091029104903246694604A8ED
:100BD000FFF7D4FF034604982118002D05D0002804
:100BE00001D00A4600E022462A6000280DD0002BE2
:100BF00002DD0098884208D0081B0190009432461C
:100C00006946029404A8FFF7B9FF06B070BD000062
:100C1000950F0000B50F0000FFFFFF7F21060000C9
:100C2000FFB5087889B01546FF2805D0491C2D2846
:100C300004D00022002407E000240BE00122F9E7A1
:100C40000A235C430419491C0878FF28F8D1002ABC
:100C500000D06442002004902A7801462D2A01D059
:100C60002B2A0FD16D1C2D2A02D00022049209E0FC
:100C70000122FBE700260A2233466D1C00F0DEF954
:100C8000381871412F78FF2FF4D10C9AA2180692D0
:100C900002460A4304D0FF23069A9133DA4205DA6A
:100CA000002109980A4606C00DB0F0BD0024B74ADD
:100CB000B54D2646079200F015FA0290069803916A
:100CC000002801DA474200E0074639050020AF4A14
:100CD000001C51410191009012E0F80707D0224614
:100CE0002B4630460799FFF757FE064607912246E6
:100CF0002B4610461946FFF74FFE04460D467F105F
:100D0000002FEAD10698019B0028009A03990298C7
:100D100006DAFFF753FB3246079BFFF74FFB05E070
:100D2000FFF73AFE3246079BFFF736FE049A002A89
:100D300002D00122D2075140099A03C2B4E7FFB59D
:100D400091B0002009900025ED432E209E685C683C
:100D50001F460190B9696D1C129888470090396A46
:100D600088470028F6D10098401C0AD00D20C00109
:100D70008443002E12DD00982B2809D02D280DD198
:100D800003E00020C04315B0F0BD01208002044301
:100D9000B9696D1C12988847761E009003A96005FA
:100DA00001D52D2000E02B206A461073491C0CA8A9
:100DB0000F9102900AE0B9696D1C12988847009063
:100DC0000120400204431398761E0560002E02DDC8
:100DD00000983028EFD001990098884246D18020B1
:100DE000044308E00998401E099001204002044392
:100DF0001399681C0860B9696D1C761E12988847A3
:100E000000903028EED031E00199884205D12006CB
:100E100003D480200443761E1EE0009802F094F96B
:100E2000002826D001204002044307A90F9803316F
:100E3000761E88420BD200980F99303808700F98B0
:100E4000401C0F90200607D50998401E03E020069D
:100E500002D40998401C0990A00502D51399681C7A
:100E60000860B9696D1C129888470090002ECBDC91
:100E700059E0002E57DD0098652801D0452852D151
:100E8000A00550D5032000028443B9696D1C761E6D
:100E9000129888470090002E0CDD2B2804D02D28B6
:100EA00008D1FF2001300443B9696D1C12988847AE
:100EB000761E0090E00501D52D2100E02B2102983F
:100EC00001700298401C0290019025E00120400230
:100ED00004430EA902980131761E88420ED2009872
:100EE000029930380006000E087003D1029901986B
:100EF00081420AD90298401C029006E0E00501D523
:100F0000234801E0224840420990B9696D1C1298BB
:100F10008847009013980560002E04DD009802F0C9
:100F200013F90028D2D1F969129888470F99FF2048
:100F30000870029903AA087000200A900B900CA96F
:100F40000AA8099BFFF76CFEA00502D40120C0434C
:100F500019E72420044209D0E00713D138680B9A1E
:100F60000A99031D3B60006806C00BE00B990A98C4
:100F700000F046F80146E00704D13868021D3A60E7
:100F8000006801602846FEE6000014400000F03FC3
:100F9000F1D8FFFF4268002A08D001680B78491C8D
:100FA000002B03D0521E06C0184670470121C160B5
:100FB000881E70474268002A0BD0C3680168002B66
:100FC00007D183688B4204D0491E521C06C0002002
:100FD00070470020C043704710B5002904DB01248E
:100FE000E40740428C412146002B04DB1C460123D0
:100FF000DB075242A3418B4200D1824210BD000068
:10100000CB0FDB07490010B5490802460A4307D059
:101010000A0D07240903E401090B121B002A01DC55
:10102000002010BDC900440F0C43C100E018D205D8
:101030008018FFF75EFB10BD00207047F0B51FB4AD
:1010400086B000200090019002900698069980B228
:1010500004900798090C020400141143079000271C
:10106000089D099806913E463C4603900398A9B214
:101070000204000C039004982D0C154348430021F2
:101080002246FFF737FDC719714110340E46402C38
:10109000ECDB3846029AFFF72DFD009A019B801881
:1010A0000090594102980191103002904028CCDB09
:1010B00000980BB0F0BD70B54B005B0803430BD03C
:1010C0004B005C0D002633466542B341D417AD1A80
:1010D000A34102DB0020014670BD120530185141CA
:1010E00070BD00000EB5054A029200220092134620
:1010F0000192FFF74CFB03B000BD00003304000079
:10110000811E091F00BFFCD2704711400368934342
:101110000B430360704700000448014901607047B9
:1011200000404013014908607047C046A0120A40C1
:10113000014908607047C046E0120A400349086050
:101140007047C046014908607047C046D0120A4047
:101150000121C902E84A42507047C0468000134945
:10116000044A42507047C04680001049014A42502C
:101170007047C0468100060080000C498122425021
:101180007047C04680000949812242507047C046DE
:1011900001480249016070475880424082000400C3
:1011A00080220A4380000149425070470480424037
:1011B0002722D20180580840704700009F49EE4A1C
:1011C00042507047014908607047C04690120A407B
:1011D000F0B584B0012422022A4B1968039291438E
:1011E00019604A490D686D04FCD5457E25409E690D
:1011F000A64374199C612024045D03252C40DE69FC
:10120000AE433419DC61204C256805262660466A09
:1012100037681F6276685E6207262E402660C469C2
:101220007F252D02DE69AE436406640C3419DC614F
:101230000768456882680092C6680269019242693F
:1012400002929A69114C14403A07120B2D03ADB269
:10125000AA183243009D2D072D0D1543019A154301
:10126000029A1543007E2843094A024010199861EA
:101270001868039A1043186008688005FCD504B00C
:10128000F0BDC04608010B40001340408D00F0FF48
:1012900072FF0F00012000031B490A6802430A6025
:1012A0007047C046014800210160704708030B40A9
:1012B00080B5012041020F2002021348FFF725FFED
:1012C00080BDC04680B5034800210322FFF71DFF03
:1012D00080BDC04600010B4080B50B481021302274
:1012E000FFF713FF80BDC0460749886007480268C2
:1012F0009202FCD5012212040B6813430B600168B3
:10130000C906FCD57047C04604010B4004020B40DF
:101310000149012242507047081100000121C90211
:10132000754A42507047C046F0B5674A82183B4B39
:10133000C31808794E793A4D3A4C002E23D0202814
:1013400004D00526F601002803D003E0364E00281D
:1013500000D18826576F2F4037435767976F2F402C
:1013600037439767566B26405663966B26409663C5
:101370000026566596658F26F6435F6837405F60A6
:101380009F6837409F608E79096820280BD000281D
:1013900019D1491E5160D76E2F4088210F43D7665F
:1013A0001746703719E0491E5160D16E29401E4F13
:1013B0003943D166116F294039431167012149072B
:1013C0001A4D174609E049085160D76E2F40052194
:1013D000C9010F43D766174670373C682C400C4351
:1013E0003C60D16A0F4C2140D162116B21401163E6
:1013F0000021D16411658F21C943D46F0C40D4679B
:101400001C680C401C600643BD2030401168084B2E
:101410000B40C018801C1060F0BDC046841800004E
:1014200024493E008888FDFF01040000FFFFFFCF34
:101430004000FFCF0149504A425070470408000065
:10144000112212028150704710B507239B041940E6
:1014500092008018024A84589C436118815010BD44
:101460003018000010B5029CA40000191143194364
:10147000014A815010BDC0465018000092008018EB
:10148000014A81507047C0461018000010B5012273
:10149000120383180C789C604B7883508978014A3A
:1014A000815010BD0C11000080B507494018002183
:1014B000014AFFF72AFE80BD80FF00000249425822
:1014C000012313434350704704180000414801684A
:1014D00001220A43026070470120800202490A6823
:1014E00002430A607047C0462890104001480249F4
:1014F0000160704700881040010000260148006824
:10150000C0B2704720901040B0B51122120283582B
:101510000124A34383500B888C781C438B8823437E
:10152000094C1C408358094D1D40631983508B7929
:10153000CC791C43097A21437E23194080184268E4
:101540009A4351184160B0BD18670000E798FDFF4D
:101550000248006804210140880870470891104043
:1015600001480068C0B27047249110400148024908
:101570000160704704881040030000B110B50A4CA8
:1015800020460C301521094AFFF7BFFD20461030D8
:101590002D213F22FFF7B9FD21680122114020468D
:1015A000FFF7B3FD10BDC04604911040FFFF0000DF
:1015B00010B50122120383180C789C604978815081
:1015C00010BD000080B50320C20302480021FFF7D0
:1015D0009CFD80BD00911040B0B51220052421462D
:1015E000FFF7DEFD01252802FFF7A8FD13202146A5
:1015F000FFF7D6FD6802FFF7A1FD0D200424214668
:10160000FFF7CEFD8020FFF799FD14200225294623
:10161000FFF7C6FDFFF7BCFD3520FFF7ADFD2846FF
:10162000FFF7AAFD2E20FFF7A7FD2320FFF7A4FD5B
:101630003620FFF7A1FDFFF76FFD0F48FFF77EFD96
:101640000E20FFF78BFD0F20FFF788FD1020FFF71E
:1016500085FD1120FFF782FD3B20FFF77FFD20462F
:10166000FFF77CFD2620FFF779FD2420FFF776FDAC
:101670002520FFF773FDB0BD00404013F0B581B0E9
:10168000704C1E492046FFF701FF1D492046FFF719
:101690004BFE2046FFF708FF002568460560204600
:1016A00029462A462B46FFF7DDFE204629462A46D4
:1016B000FFF7CAFE7D200602204631462A46FFF784
:1016C000DDFE012768460760204629462A462B464C
:1016D000FFF7C8FE204629463A46FFF7B5FE2046EA
:1016E00031463A46FFF7CAFE2046FFF711FE0321B6
:1016F0002046FFF7A5FE01B0F0BDC046A8390000A6
:10170000AC39000080B5FFF7CDFDFFF7D1FDFFF745
:10171000D9FD0548FFF75CFDFFF7DEFDFFF7BAFDD9
:101720000020FFF7E1FD80BDB4390000B0B582B004
:10173000454C13492046FFF7A9FE12492046FFF702
:10174000F3FD2046FFF7B0FE002568460560102235
:10175000204629462B46FFF785FE204629462A4685
:10176000FFF772FE084920462A46FFF787FE20460B
:10177000FFF7CEFD01212046FFF762FE02B0B0BDAB
:10178000DC390000E0390000DC05000010B5094C30
:1017900009492046FFF70CFF08492046FFF7B4FE31
:1017A000FFF710FFFFF7EAFEFFF796FEFFF78EFE4A
:1017B00010BDC04600801040E8390000EA39000042
:1017C00080B500F017F8FFF707FFFFF79BFFFFF763
:1017D00055FFFFF7ABFFFFF7D9FFB8200349002201
:1017E0000A549C2002490A5480BDC0460C002020A7
:1017F000C8002020F0B581B0F04C2046FFF7DEFC99
:10180000ED4D2846FFF7DAFC0E4E3046FFF712FE8C
:101810000D4F3846FFF70EFEFFF7A8FE2046FFF7F4
:1018200097FC2846FFF794FC3046FFF777FD3846D3
:10183000FFF774FDFFF75AFE1020FFF761FC01B0BF
:10184000F0BDC046000086400000094010B5054CC0
:101850000548606000F046F80020A0600720206086
:1018600010BDC04610E000E07F380100024801686A
:10187000491C01607047C0466801202070B5FFF721
:101880003DFE0B2816D1FFF763FE002812D10A4C4B
:101890000A4D0B4EFFF764FE21784A1C7F21114050
:1018A0002A78914202D02278B0542170FFF750FE7E
:1018B0000128EFD170BDC046F4062020F506202097
:1018C000740620200120C003014908607047C0460B
:1018D00080E200E00120C003014908607047C04673
:1018E00000E100E0FF20000603490A68824303206C
:1018F000800710430860704720ED00E00121C90710
:101900008843704780B50C490A78012A0FD0002A15
:1019100011D101220A7009490860094800210160BB
:10192000084809490161094800F0BAFF80BD02205A
:10193000087001F019FA80BD900120209401202048
:101940008C0120204C062020000048C26C01202081
:10195000F0B581B015460446D8171F184740144803
:1019600007420BD00126002B12DB0846314600F05F
:1019700027F90021284600F023F912E00026084646
:10198000314600F01DF92846314600F019F908E00B
:1019900000220846114600F013F92846314600F0AF
:1019A0000FF9B9B2204600F0CBF901B0F0BDC04646
:1019B000FFFF0000417800780002084300B2704742
:1019C00010B504460A49FEF79BFD01467D20C00084
:1019D00000290AD107492046FEF776FD0146064850
:1019E000002902D12046FEF7B9FD00B210BDC04665
:1019F00000007A4400007AC418FC000004498842C0
:101A000000DC08467D21C900884200DB084670479B
:101A100018FCFFFFAF218900884201DA08467047B1
:101A20000249884200DB084680B27047FC0800008B
:101A3000F0B581B015460C460646FEF745FD074653
:101A400030462946FEF75CFD002800D13546002FC0
:101A500000D12C46204601B0F0BD000080B503A0A7
:101A600000F0A4F900F056FD80BDC04664697370B3
:101A70006C61793A206465627567206F7574707562
:101A8000742072656164790D0A000000F0B5CBB076
:101A900004462A48026821688A1AFA2A4CD301604F
:101AA000606AFEF74DFD0022254BFEF787FC1A9079
:101AB00019911820205E18901A20205E1790A068B7
:101AC000FEF765FD16901591E068FEF760FD149035
:101AD00013912069FEF75BFD074611916069FEF7DF
:101AE00056FD03460D46207912906279A18B684617
:101AF0001A9E8663199EC663189E8662179EC662EA
:101B00000163169981601599C16014990161139957
:101B100041618761119906461C362AC602601BADD9
:101B2000C021084A2846129B01F096F9284600F089
:101B30003DF9204600F00CFD4BB0F0BD0800202020
:101B400000408F40F33C0000B0B5044600F0F2F8CE
:101B5000054600F0EFF8401BA042FAD3B0BD0000EC
:101B6000B0B50246042400211348F54B0B2A20D8B7
:101B70007A44127952009744140507091C1C1C1C56
:101B80001C110B0E08240CE010240AE0202408E0AD
:101B90000120840704E00120440401E00120C40680
:101BA00018462146FFF704FB20400121002800D100
:101BB00001460846B0BDC04600200A4000000A4069
:101BC00080B5001FC2B2042A0AD840B2800005A224
:101BD0001058012902D1FFF7F5FA80BDFFF7A2FAEC
:101BE00080BDC04600000001000000100000400061
:101BF0000040000000000002F0B581B014460D4620
:101C000007460026002D01D1002C1CD178B20028F7
:101C100019DB002600F0A4F9012812D17800C0B227
:101C200000F0C5F90646012E0BD1002C09D0002783
:101C3000E85D00F0BCF906467F1C012E01D1A742E9
:101C4000F6D300F0A6F9304601B0F0BDF0B583B090
:101C50001C4617460E460025002E01D1002F4CD100
:101C60000899002C01D1002947D142B2002A44DB57
:101C70000190029100F074F90546002F009413D0F2
:101C8000012D11D101984000C0B200F090F9054635
:101C9000012D09D10024305D00F089F90546641C4E
:101CA000012D01D1BC42F6D30298002823D0012D8A
:101CB000009C20D1002500F053F901281BD1019888
:101CC000400001263043C0B200F071F90299054688
:101CD000012D10D100200190471C8F42314600D3C6
:101CE0000199201800F0C0F80546012D03D1029992
:101CF0008F423846F0D300F04CF9284603B0F0BDCF
:101D000080B5354800210170324801700B480160F0
:101D1000FFF756FD1948FFF7D1FB2348FFF7CEFB2D
:101D2000FFF7D0FDFFF7D6FDFFF790FDFFF7DAFDD7
:101D300080BDC046014800687047C0466801202049
:101D4000B0B50A460446D3087D20C1007D2B00D3E0
:101D50000A4605026A4380001018FEF7C5F9291AE1
:101D60000648012C05D0002C06D10022FFF786FB87
:101D7000B0BD0122FFF782FBB0BDC0460000864027
:101D800080B502280CD10748814200D301467D204E
:101D90008000814200D8014603480022FFF76EFB15
:101DA00080BDC046C4090000000009407047000023
:101DB00008490A780020C043074B1B789A4207D095
:101DC0000878064A105C0A78521C7F2313400B7077
:101DD0007047C046F5062020F40620207406202017
:101DE00010B5C04C14498978002908D061790129BF
:101DF00005D022790121032A00D0511C21710F49FD
:101E00008978002907D06179012902D100F0EEFF1D
:101E100001E000F0B5FF0A48807800280AD0607918
:101E2000012807D000F020FA00F070FF00F044FA1B
:101E300000F002FB10BDC046A4052020AC05202008
:101E40009C05202080B56420FFF75AF980BDB0B50D
:101E50000C4605462046FFF765F92846FFF792F93C
:101E60002046FFF76FF9B0BDF0B583B00291019045
:101E700000F06FF800242646254600F041F80128BE
:101E80002AD1FF20400077000740FFF7DBFF00F07A
:101E90004DF806463E4300F02BF8FFF7D3FF6D1CCC
:101EA000E8B20828E9D30298012802D100F04AF8E4
:101EB00001E000F04EF8FFF7C5FF00F021F801281F
:101EC0000AD1FFF7BFFF00F013F800F042F8FFF768
:101ED000B9FF019806700124204603B0F0BD10B58B
:101EE00004460846FFF724F92046FFF73DF910BDE8
:101EF00080B50120C1032420FFF7A9FF80BD0000A9
:101F000070B50125EC0324202146FFF7E8FF064EBB
:101F10000B482146FFF74CF9204203D10020761CE4
:101F2000F6D170BD284670BD18FCFFFF10B501202A
:101F3000040403482146FFF73BF92040000C10BD84
:101F400000000A4080B5012001042520FFF77FFF33
:101F500080BD80B5012001042520FFF7C0FF80BDB2
:101F600010B5FFF7F6FF0024FFF7CAFF01280ED1D6
:101F7000FFF768FFFFF7DAFF012808D1FFF7E2FF5C
:101F8000FFF760FFFFF7B4FFFFF75CFF0124204677
:101F900010BD80B5FFF7D6FFFFF754FFFFF7B0FF86
:101FA000FFF750FFFFF7D5FFFFF74CFF80BD70B57F
:101FB000054600268020054202D1FFF7C3FF01E05D
:101FC000FFF7C7FFFFF73EFF0024FFF799FF012847
:101FD0001BD1EDB2FFF736FFFFF78AFF6D00761CCD
:101FE000F0B20828E6D3FFF7B4FFFFF72BFFFFF7A7
:101FF00087FF012809D1FFF725FFFFF797FF01248D
:102000004440FFF775FFFFF71DFF204670BD00003D
:1020100010B527491CC91CC01CC91CC010BDC04636
:1020200080B524484021FEF7A2F820480021017025
:102030001F48016041608160C1600161416180BDF4
:10204000F0B581B00446FFF7B3FE002821DB174D41
:10205000184EC2B20D2A18D029780A2A08D10027B2
:102060007754002902D0204600F0B8FB2F700CE016
:102070003E2903D84A1C2A70705406E000202870BC
:102080000B4801464869401C4861FFF791FE002853
:10209000DFDA07480178002905D0C168611AC9292B
:1020A00001D30021017001B0F0BDC046040620201C
:1020B000F8062020C405202080B5202209498B7F06
:1020C0000020002B0DD08A5C0F2A0AD08868FFF709
:1020D00015FC0549FEF7EAF901460120002900D167
:1020E000084680BD4C0620200000C8433848002127
:1020F0000160364801607047F0B587B0019000205C
:102100000690059004902EA7304C0546029003904F
:102110002DA0405DFFF724FD01214840625D530082
:1021200006261E400643665553080A4010180B4009
:10213000C018012800D8029904AA515502280DD3CD
:102140000120A8400599014304A801714179491C67
:102150004171039880B2398808180390BF1C6D1C28
:10216000042DD5D104A845790121002D00D129469F
:102170008171291F0022521A4A41C271002D12D0CA
:10218000039800B2FEF7CAF906462846FEF7D1F9D1
:1021900001463046FEF7D4F80E49FEF794F8069053
:1021A0000B49086002E00A48006806900698019909
:1021B0008860059848600498086007B0F0BDC04684
:1021C000FDFFFFFF01000300000102039801202032
:1021D000B4052020ABAAA64380B5FFF791FD00F01F
:1021E000F9FBFFF7A7FD00F031FCFAE73048008863
:1021F00000B270472F48008800B2704780B52C4865
:10220000002101802B48018000F02EF880BDC046DF
:1022100070B50C46FFF7F2FB05462046FFF7EEFBD4
:102220000446234E308800B2294600F0A7FB3080D8
:10223000204D288800B2214600F0A0FB288008200D
:1022400001242146FFF7BCFC308803B200200421A2
:102250000522FFF77DFB288803B2062107222046CE
:10226000FFF776FB70BDC04610B51148002404800E
:102270001048048020462146FFF762FD01202146D8
:10228000FFF75EFD04202146FFF79AFC052021465A
:10229000FFF796FC06202146FFF792FC0720214617
:1022A000FFF78EFC08202146FFF78AFC10BDC046D0
:1022B000BC05202044062020F0B585B06048017898
:1022C0000020002922D001AC0C3400252F4601A8A3
:1022D00000F060FB00281BD02046FFF76BFB064692
:1022E0000220FFF731FCBF196D1C0C482840800804
:1022F0004B28ECD33846FEF711F90949FEF720F8D0
:102300004B49FEF71DF84E494860012005B0F0BD6D
:1023100000204B49087005B0F0BDC046FCFF00002E
:102320000000964310B546491CC91CC01CC91CC0FE
:1023300010BDC046B0B5424D00242C606C60AC604E
:10234000EC602C616C616B20214600F079FD002867
:102350001AD03220FFF7F8FB1920072100F070FD9A
:10236000012814D11A20032100F06AFD00280ED0A4
:102370001B20002100F064FD2870002809D0FFF721
:102380009BFF00F059F804E02C702046B0BD0020FF
:10239000287028780124002800D104462046B0BDCA
:1023A00070B584B00446264E31780020002939D01B
:1023B000684600F0EFFA002836D06D462846FFF751
:1023C000F9FAB08102202843FFF7F4FAF081281DC2
:1023D000FFF7F0FA308228460830FFF7EBFA7082F8
:1023E00028460A30FFF7E6FAB0820C352846FFF798
:1023F000E1FAF082FEF792F80D49FDF7A1FF71684E
:10240000FDF759FF05462046FEF793F80949FDF709
:1024100097FF2946FDF757FF0146B068FDF7FAFE22
:10242000B060012004B070BD0020307004B070BDF9
:102430000000034300007A44014800218160704796
:102440002C06202080B501208102CE48FDF78FFEAA
:1024500080BDC046F0B585B001910546203AD0B2A6
:1024600000215E280391029100D80292039A0198FC
:1024700014180298C0000B4908180492875C039E48
:102480000120B040384204D0A819C0B2E1B200F037
:1024900065F9761C082EF3D1049A521C082AE6D15D
:1024A00005B0F0BDFB39000070B50C46054611784B
:1024B00000290ED0561CE8B205460835802D08D8F4
:1024C000CAB22146FFF7C6FF701C317800290646C4
:1024D000F1D170BDF0B5A1B03C200D490722FFF746
:1024E0008BFB6846441CA74D08276E464020307081
:1024F000802220462946FDF721FE3C2081223146DC
:10250000FFF77AFB7F1E8035002FEED121B0F0BDA2
:10251000F4390000B0B5002406A5281B007800F0AF
:1025200033F9641E20461930F7D1FFF78BFFFFF710
:10253000D1FFB0BDAED580A83FD300408D142000A0
:10254000A1C8DA1281CFD9F1DB40A4A6AF00000008
:10255000F0B58FB007463879022803D07879002883
:1025600000D196E0FFF76EFF3C79787900F02EFC01
:10257000694608600AA811215DA2234600F06CFCA0
:1025800000240AAE204621463246FFF78DFF786AC6
:10259000FDF7D6FF594B2246FDF710FF6A4603C2EE
:1025A000112557A230462946069500F055FC082112
:1025B000204607943246FFF777FFB868FDF7E7FF3C
:1025C0006A4603C251A23046294600F045FC10215C
:1025D00020463246FFF768FF202008903B5CD90870
:1025E00001221140302001436D4605979F08174096
:1025F000074309905C081440044390C529601340C8
:10260000034345A23046069C214600F025FC1821D4
:102610000491079D28463246FFF746FF059FF8685C
:10262000FDF7B5FF6A4603C23FA23046214600F0DF
:1026300013FC284608993246FFF736FF0498385EA7
:102640001A21795E08181421FDF764FD034639A2AA
:102650003046214600F000FC282128463246FFF78C
:1026600023FF7869FDF793FF6A4603C234A2304620
:10267000214600F0F1FB284609993246FFF714FF86
:10268000382132A22846FFF70FFFFFF723FF0FB0D4
:10269000F0BDB87F00280AD02020385C0F2806D073
:1026A000BC680D492046FDF71DFF002809D1FFF742
:1026B000C9FE3C790AA8112109A2234600F0CCFBEF
:1026C0005EE706492046FDF7F1FE0546FFF7BAFE34
:1026D0003C79002DEED048E70000C8C30000C84395
:1026E0004D256420414C49474E20563200000000E1
:1026F0004D256420257320563200000000408F4095
:1027000054494D453A25352E316653004C494E45C6
:102710003A25352E306600004D41534B3A2563254E
:10272000632563256300000042414C4C3A25362E58
:10273000316600005350443A2534642525000000DA
:102740005941573A25362E31660000004D4F444519
:102750002F535452542F43414C49420042B2002A55
:102760000EDB3F290CD807220A40012393401F2289
:10277000D20109011140034A51180A5C1A430A5454
:102780007047C0469C01202080B582B001A900227C
:102790000A7048703C200222FFF72EFA02B080BD7A
:1027A00070B582B00446002501950A4E0AA10222A6
:1027B0003046FDF7E7FC002809D1B51C01A92846E1
:1027C00001F09EF820600198451B681E854128464F
:1027D00002B070BDC4052020423A0000F0B583B0BD
:1027E00004460026029602A8FFF7DAFF01280BD163
:1027F000254801210170029941608660C460016929
:10280000491C016103B0F0BD1C4D1DA106222846E4
:10281000FDF7B8FC002805D01B484169491C4161FF
:1028200003B0F0BD0196A81D01A901F069F802905E
:10283000154E37461437019801782C2918D1401CC1
:1028400001A901F05DF80546019801782C290FD106
:10285000401C01A90A22FDF7A5FC0121002800D196
:102860000146317002987060B560F46010363746EA
:102870003868401C386003B0F0BDC046C405202055
:102880002442414C4C2C0000F806202080B50EC09C
:10289000029981600399C1600C3800F001F880BD95
:1028A0000021C1600161017770470000F0B583B07D
:1028B00015460E460446244F28463946FDF7F6FDD8
:1028C000002800D12F4638463146FDF7FCFCE16870
:1028D000FDF7A0FC01960126F307A26911460293B9
:1028E0005940FFF7A5F8E06025460C35207F002809
:1028F0000AD02169019E3046FDF7DDFC3946FDF71F
:102900001FFD0746314602E0267700270199216125
:102910002068FDF7D8FC064660682968FDF7D3FCFF
:1029200001463046FDF776FC0646A1683846FDF7BD
:10293000CAFC01463046FDF76DFC626902995140C0
:10294000FFF776F803B0F0BD17B7D13810B50446DD
:1029500007480921224600F057FA06480A21224674
:1029600000F052FA04480B21224600F04DFA10BD47
:10297000A4052020AC0520209C05202002460A3218
:102980008A4201DA10B270470A38884200DC0846F1
:1029900000B2704780B582B0034601A93B200870A1
:1029A0000E206A46106068200122FFF74FF902B03E
:1029B00080BD000080B5D048FFF772FF9548FFF753
:1029C0006FFFD04800210160CA4801609348016050
:1029D00080BDC04680B582B0E84800220260012177
:1029E00001714271026112486946486011480860ED
:1029F000C14811491346FFF749FF1048694648602E
:102A00000F4808604120010682480E4A0E4BFFF72E
:102A10003DFFFFF7F3FBFFF769FB00F081F9FFF7DC
:102A2000FFFAFFF787FCFFF719F802B080BDC04638
:102A300000803B4500000C438FC2753E0000FA4405
:102A40000000BE430AD7A33C9A991940F0B58DB057
:102A50000546434801686F1A052F7ED30560E94C8F
:102A600025602846FFF772FF2846FFF7B9F9284688
:102A7000FFF7E6FA0526322F00D83E463046FFF72C
:102A80008FFC04A8FFF74EFC0698606101A8FFF7D1
:102A900033FB03980C9002980B9001980A900C98C5
:102AA000A0600AA88079A07720200B992154304695
:102AB000FDF73FFD2B49FDF743FC064660790128F1
:102AC00016D1BE480068281A606222792649022A77
:102AD00011D0012A13D188421ED26069FEF70EFF81
:102AE0002249FDF7E3FC002816D100F07FF918E039
:102AF000FFF7BAFB15E0FFF7B7FB01221DE08842A4
:102B000012D26069FEF7FAFE1849FDF7CFFC0028E3
:102B10000AD100F06BF90CE00AA831462A4600F011
:102B200081F800F0F3F80CE00AA831462A4600F0DC
:102B300079F86079012804D100223046294600F056
:102B400017F8FFF753FB2083FFF754FB608300F077
:102B5000E3F8A0832046FEF799FF0DB0F0BDC04614
:102B6000B805202000007A44BD02000000000C429D
:102B7000F0B587B015460C46064601AF3846FFF75C
:102B800047FAA0480199C1770299C160391D002D0B
:102B900001D10022026101AA1278002A1BD000692B
:102BA0000968FDF788FB07461A4839463246FFF7A1
:102BB0007DFEFDF7D3FC00F0B7F8012D28D1384693
:102BC000FEF79CFE1449FDF79BFC00280AD0134831
:102BD0000021016013E00F48FFF762FE00F096F855
:102BE00007B0F0BD0D480168002907D0601A8008C1
:102BF0007D2804D32046FEF785FE00E0046070487F
:102C00000068201A0649884202D32046FEF77AFE61
:102C100007B0F0BD6C012020000020418C01202075
:102C200089130000F0B583B014460A460546A9682A
:102C300074488160AB7983772E48002B2DD0002318
:102C4000019303602C48FFF731FE029406462B4F98
:102C50003946FDF7DFFAFEF7B3FE04463846314643
:102C6000029EFDF728FBFEF7ABFE01462046FFF76C
:102C7000CFFA524C2068301A2149884230D301994A
:102C8000E879002828D01F480168002927D0701A49
:102C90003D2825D300F068F822E00268002A07D01A
:102CA000A01A4008AF2804D300F0A0F803B0F0BD8C
:102CB0000460002208461146FDF706FC002805D0F6
:102CC0005020B421FFF7A4FA03B0F0BDB420502186
:102CD000FFF79EFA03B0F0BD0A48016000E006600D
:102CE0002068301A0849884201D300F03DF803B04B
:102CF000F0BDC046080620200C06202000005C43E2
:102D0000DD050000C00520203175000080B50F48AA
:102D100000F01EF880BDC046124800887047C046CB
:102D200080B5FFF7F3FF80BD80B50749884200DC1E
:102D3000084669218900884200DB0846034940189B
:102D400080B200F005F880BD5CFEFFFFDC050000EE
:102D500080B5FEF75FFE0146024801800220FFF7C2
:102D60000FF880BD4606202080B52648022141711B
:102D7000FFF77AFAFFF7CAFF80BDC0464C06202055
:102D8000B0B504461F4D2879022803D0FFF794F907
:102D9000002810D0012068710848046008480460C9
:102DA000084800210170084828616962FFF702FEA7
:102DB000FFF742FBB0BDFFF757FAB0BD4806202031
:102DC000940120209001202000004842022804D8CD
:102DD00040B2800004490858704701A07047C046BF
:102DE00045525220000000009C39000080B5054883
:102DF00000214171FFF7DEFDFFF736FAFFF786FF8E
:102E000080BDC0464C062020B0B515460446084695
:102E1000FEF7A6FE0021A1700121484022789042D1
:102E200001D0207065606068281A1E2807D32078BA
:102E30006278824203D06070002800D0A170B0BDDB
:102E400080B582B001AB1870597068200222194613
:102E5000FEF7D2FE02B080BD0FB41CB502460020C2
:102E600007AC00290BD0491E01910092064B6A461F
:102E70002146069800F070F9009A002111701CBCE0
:102E800008BC04B018470000913800002021020C53
:102E900001D010211046020A01D01046083902095B
:102EA00001D01046091F820801D01046891E420831
:102EB00001D0881E7047081A70470000004870470C
:102EC0000000202010B504460868496800F002F8A8
:102ED000206010BDF8B504460D466A4600F0E4FCDB
:102EE00000987E30009000281CDC0022134620460B
:102EF0002946FEF771F815D0264E00213046FEF720
:102F00009BF8074620462946FEF77AF804463740E4
:102F100039463046FEF790F860002FD1022000F0CD
:102F200053F82BE00098FF282EDB00210846FEF71F
:102F300083F80321890508400646002213462046EF
:102F40002946FDF7B1FD01D8012500E0002502204A
:102F500000F03AF8FF24E405002E09D0002D02D03D
:102F60000120800501E00120C005B04200D00A4CDC
:102F700004210846FEF760F8002D01D02046F8BD78
:102F80000120C0076040F8BD20462946FEF738F80A
:102F9000F8BD000008080000FFFF7F7F0000000070
:102FA00002E008C8121F08C1002AFAD170470000C9
:102FB0007047000000000000002001E001C1121F66
:102FC000002AFBD1704700000149086070470000EB
:102FD00000002020F0B51FB486B00998089A030DB0
:102FE0000021024314D05148514A18185043051487
:102FF0001198012810981AD0281A401C00264D4F0D
:103000004D49009601910490002812DA444211E0E3
:103010001198012449A3012801D11098C1430698B1
:10302000119A84600360C26041600BB0F0BD404201
:10303000E4E70446210500203F4A001C514103916A
:10304000029012E0E00707D032463B460199009813
:10305000FDF7A2FC0191009032463B46104619460E
:10306000FDF79AFC06460F466410002CEAD104983E
:10307000039B0028029A0999089806DAFDF78CFC50
:10308000019B009AFDF788FC05E0FDF797F9019B8D
:10309000009AFDF793F904460E460022284BFDF7EF
:1030A00003FD03D80020C043014607E00022254B62
:1030B00020463146FDF7BEFBFDF7D6FC102409E0A3
:1030C000002C0ADB0A220023FDF775FA079B303239
:1030D0001A55641E02460A43F2D11122641C079B52
:1030E000121B1C19119B012B03D0012308430ED185
:1030F0000AE0084304D0112010900020119077E7D7
:103100001098151A6D1E0BE01098824202DD002304
:103110006D1C03E0824201DA00236D1E002BEED00D
:10312000069811998260C16030C07EE701FCFFFF04
:10313000104D0000000014400000F03F300000007F
:103140000000F0430000E03F30380A2801D201209F
:103150007047002070470000FFB597B00646002575
:1031600018E2252877D100242746FD49049400E081
:103170000443761C32780120203A90400842F7D16F
:1031800030782A280ED002223078014630390929B9
:1031900016D804990A235943303940181443761C31
:1031A0000490F1E7189802C804911890002904DAF5
:1031B0000120400304434842049002200443761C4B
:1031C00030782E2814D1042004437078761C2A28E5
:1031D00009D11898761C80C8189009E00A214F433D
:1031E000303FC719761C3078014630390929F5D9A6
:1031F00030786C2810D006DC4C281AD068280ED005
:103200006A2817D104E0742813D07A2812D110E06C
:103210000120400504430CE00121090501E00321E0
:1032200009050C437178814203D10120000524185F
:10323000761C761C3078119066280BD013DC582849
:103240007DD009DC00287BD04528F6D04628F4D074
:1032500047281AD1A5E118E0632835D0642870D03A
:10326000652812D19DE170286CD008DC6728F1D068
:1032700069287BD06E280DD06F2806D1BAE073285C
:103280002ED0752871D0782859D01A9A199990475C
:103290006D1C7EE16002400F022809D003280DD08A
:1032A0000428189801680DD00D60001D189070E179
:1032B0001898EA1701680D604A60F6E718980168E7
:1032C0000D80F2E70D70F0E718986A4601781172E8
:1032D000001D18900020507202A80090012005E007
:1032E000189802C8189000200091C04361070DD5BE
:1032F000002101E00199491C0191B94212DA814291
:10330000F8DB009A515C0029F4D10BE0002101E0C8
:103310000199491C01918142FADB019A0099895C6B
:103320000029F5D1019904981A9B471A214638467D
:10333000199A00F097FA0199401945180BE04FE0EF
:103340002CE113E04EE0009800990078491C0091B0
:103350001A9A199990470198401E0190401CF2D189
:10336000214638461A9B199A10E137E00A200021BD
:10337000009001916002410F022907D0189A01CAFA
:103380001892C2179446032908D00AE01898C01D65
:10339000C108C90005C91891944607E000B2C217D8
:1033A0009446042902D140B2C1178C4600226146DE
:1033B000944506DA0A460021404291418C462D216F
:1033C00002E0210504D52B216A461173012103E097
:1033D000E10701D02021F7E7029155E00A200AE039
:1033E000102008E0102000900021042004430191E7
:1033F000082703E008200021019100906002410F9E
:10340000022907D0189A01CA18920022944603296B
:1034100008D008E01898C01DC108C90005C9189156
:10342000944603E080B2042900D1C0B20021029189
:10343000210729D51199702906D0009A1021019BE6
:103440004A401A4305D00EE040216A46117301211B
:1034500008E06146014306D030216A461173119994
:10346000517302210291009A0821019B4A401A439C
:103470000AD16146014301D1610705D530216A4671
:10348000117301217F1E02911199582904D035A191
:103490000E910DA90D910DE037A1F9E76146019B51
:1034A000009AFDF788F80E9B8C469B5C0D9A521E85
:1034B0000D92137061460143F0D10D9805A9081AC9
:1034C00020300190600703D501200004844300E010
:1034D00001270198874201DD381A00E00020019998
:1034E00000904118029809180498401A0490E003CB
:1034F00006D421461A9B199A049800F0B3F945198D
:10350000002706E003A81A9AC05D199990476D1C20
:103510007F1C02988742F5DBE0030CD521461A9BFD
:10352000199A049800F09EF9451904E01A9A30207F
:10353000199990476D1C0099481E00900029F5DCF0
:1035400008E00D980D990078491C0D911A9A199967
:1035500090476D1C0199481E01900029F1DC63E140
:103560000928010030313233343536373839616259
:10357000636465660000000030313233343536371D
:1035800038394142434445460000000000F05AF9F2
:103590004519761C3078002800D0E2E528461BB09B
:1035A000F0BD600700D406271898C01DC108C900E7
:1035B00048680A680831C30FDB071891190001D069
:1035C0009CA108E0210501D59BA104E0E10701D001
:1035D0009AA100E09AA1430011985B081091652818
:1035E0000CD006DC452809D046281DD0472841D1FB
:1035F00041E0662818D067283CD13CE00021112F1B
:1036000001DB112000E0781C0191009008A911A8AD
:10361000FFF7E0FC139905910021119A15927F1C88
:1036200012980197009150E00120C00703900120FB
:10363000019008A9009711A8FFF7CCFC139A1499E0
:1036400005920022119B009212981593059A0192FF
:10365000002901D0104602E0791C40180190381A68
:1036600001D5019804E04042401E0090781C019072
:10367000C01B029043E0012F00DA01270021112F27
:1036800001DD112000E038460191009008A911A841
:10369000FFF7A0FC13990591119A00211298159239
:1036A0000091019721070CD40599B94201DB0199DA
:1036B00000E00191012904DD159A491E515C302971
:1036C00006D0B84201DA011D05DA0121029115E0A8
:1036D0000199491EEDE7002805DC00994118009189
:1036E0000199091A03E0019A411C914200DD019100
:1036F0000099401A401C02900120C0070390200747
:1037000006D402990198814202DB0020C043029056
:1037100000206946C87707AF012103980337C9071E
:10372000884224D0022011902B2012900398002868
:103730000CDA404203902D20129007E00A210398F2
:10374000FCF7D2FC30317F1E039039701199481E6E
:1037500011900029F2DC03980028EFD1791E12980D
:1037600008703078202108404530BF1E387006A808
:10377000C01BC01D039010980078002800D00120C5
:10378000019941180298C01709180398091804985C
:10379000401A401E0490E00306D421461A9B199A51
:1037A000049800F05FF8451910980078002803D0BD
:1037B0001A9A199990476D1CE00324D521461A9B4B
:1037C000199A049800F04EF845191CE0009800285A
:1037D00007DB00990598884203DD1598405C19992C
:1037E00001E0199930201A9A904700986D1C401CEE
:1037F00000900298401E0290002804D11A9A2E20B0
:10380000199990476D1C0199481E01900029DDDC33
:1038100005E038781A9A7F1C199990476D1C039916
:10382000481E03900029F4DC21461A9B199A04983B
:10383000ACE600002D0000002B000000200000007E
:1038400000000000F8B5044600251E46174688040F
:1038500004D405E039462020B0476D1C641EF9D51C
:103860002846F8BDFFB50446002581B01E46C803B2
:1038700001D5302700E02027880404D505E038462C
:103880000399B0476D1C641EF9D5284605B0F0BDFC
:103890004A68002A06D00A68531C0B6010704868FA
:1038A000401E48607047000070B514460022226038
:1038B0004B000F4A5B08934219DA02461A4316D0AE
:1038C00001221205934201DB226807E03622FDF750
:1038D000F2FB4B005B083522D2432260054D1B0DE5
:1038E0005B19D2182260044A1140044A891870BD3D
:1038F0000000F07F02FCFFFFFFFF0F800000E03FB1
:1039000008B50A460021009101466846FCF7E4FE2E
:10391000009808BD00404040404040404040414188
:103920004141414040404040404040404040404094
:10393000404040404005020202020202020202022E
:10394000020202020220202020202020202020022B
:1039500002020202020290909090909010101010BB
:103960001010101010101010101010101010101057
:1039700002020202020288888888888808080808EB
:1039800008080808080808080808080808080808B7
:10399000020202024000000015390000513D000003
:1039A0004C3D0000563D000008000000007D000076
:1039B0000001000003000000000000000000000003
:1039C00040000000000000000000000002000000B5
:1039D00009000000010000002C00C44104030000A5
:1039E000204E000000000000080000001800000049
:1039F000003000000021007F2200070000000000CE
:103A0000000000183C3C1818001800363600000072
:103A100000000036367F367F3636000C3E031E30FF
:103A20001F0C00006333180C6663001C361C6E3BD1
:103A3000336E000606030000000000180C060606A0
:103A40000C1800060C1818180C060000663CFF3C09
:103A5000660000000C0C3F0C0C0000000000000091
:103A60000C0C060000003F000000000000000000F9
:103A70000C0C006030180C060301003E63737B6F72
:103A8000673E000C0E0C0C0C0C3F001E33301C0665
:103A9000333F001E33301C30331E00383C36337F3A
:103AA0003078003F031F3030331E001C06031F33E5
:103AB000331E003F3330180C0C0C001E33331E3302
:103AC000331E001E33333E30180E00000C0C000075
:103AD0000C0C00000C0C00000C0C06180C06030665
:103AE0000C180000003F00003F0000060C183018C2
:103AF0000C06001E3330180C000C003E637B7B7BF1
:103B0000031E000C1E33333F3333003F66663E66B0
:103B1000663F003C66030303663C001F366666662C
:103B2000361F007F46161E16467F007F46161E165D
:103B3000060F003C66030373667C003333333F3368
:103B40003333001E0C0C0C0C0C1E0078303030335C
:103B5000331E006766361E366667000F0606064689
:103B6000667F0063777F7F6B63630063676F7B7340
:103B70006363001C36636363361C003F66663E0663
:103B8000060F001E3333333B1E38003F66663E3659
:103B90006667001E33070E38331E003F2D0C0C0CD9
:103BA0000C1E003333333333333F0033333333337B
:103BB0001E0C006363636B7F7763006363361C1CBA
:103BC0003663003333331E0C0C1E007F6331184CF8
:103BD000667F001E06060606061E0003060C183049
:103BE0006040001E18181818181E00081C366300C4
:103BF00000000000000000000000FF0C0C18000096
:103C000000000000001E303E336E000706063E66D0
:103C1000663B0000001E3303331E003830303E3355
:103C2000336E0000001E333F031E001C36060F06D5
:103C3000060F0000006E33333E301F0706366E66F7
:103C40006667000C000E0C0C0C1E0030003030308B
:103C500033331E070666361E3667000E0C0C0C0C3E
:103C60000C1E000000337F7F6B630000001F3333A6
:103C700033330000001E3333331E0000003B666602
:103C80003E060F00006E33333E307800003B6E6618
:103C9000060F0000003E031E301F00080C3E0C0CF7
:103CA0002C18000000333333336E000000333333FD
:103CB0001E0C000000636B7F7F3600000063361C23
:103CC00036630000003333333E301F00003F190CD1
:103CD000263F00380C0C070C0C3800181818001878
:103CE000181800070C0C380C0C07006E3B00000085
:103CF0000000006D6F64653D256420737461746518
:103D00003D2564206C696E653D252E30662062611C
:103D10006C6C3D252E3166207461726765743D259B
:103D20002E3166207961773D252E3166204C3D2568
:103D30006420523D256420736572766F3D257520A1
:103D400074696D653D252E31660D0A0052554E2071
:103D50000049444C4500444F4E450000803D000062
:103D60000000202008000000A02F0000883D000077
:103D70000800202008170000B82F000000000000F5
:083D800000000000000000003B
:04000005000000C136
:00000001FF
